:1000000000000020FD040000CB440000D1440000AB
:10001000D7440000DD440000E3440000000000007D
:100020000000000000000000000000006D0500005E
:10003000E944000000000000130600007306000001
:100040008943000097430000A5430000B34300002C
:10005000C1430000CF430000DD430000EB4300003C
:10006000F943000007440000154400002344000049
:10007000314400003F4400004D4400005B44000058
:1000800069440000EF440000F5440000FB44000018
:1000900001450000074500000D4500001345000024
:1000A000194500001F450000254500002B450000B4
:1000B00031450000374500003D4500007744000011
:1000C000434500008544000049450000934400007A
:1000D0004F450000A1440000554500005B4500006D
:1000E00061450000674500006D4500007345000054
:1000F000794500007F450000854500008B450000E4
:100100000D0500000D0500000D0500000D050000A7
:1001100091450000974500009D450000A345000063
:10012000A9450000AF450000B5450000BB450000F3
:10013000C1450000C7450000CD450000D345000083
:10014000D9450000DF450000AF440000E545000050
:10015000BD440000EB450000F1450000F7450000FC
:10016000FD45000003460000094600000F46000060
:10017000154600001B4600002146000027460000EF
:100180002D4600000D0500000D0500000D050000C6
:100190000D0500000D0500000D0500000D05000017
:1001A0000D0500000D0500000D0500000D05000007
:1001B0000D0500000D0500000D0500000D050000F7
:1001C0000D0500000D0500000D0500000D050000E7
:1003F0000D0500000D0500000D050000FFFFFFFFCB
:10040000FFFFFFFFFFFFFFFFFFFFFFFFFEFFFFFFFD
:1004400010B5054C237833B9044B13B10448AFF30E
:1004500000800123237010BD400E0020000000002A
:10046000B0B5000008B5034B1BB103490348AFF317
:10047000008008BD00000000440E0020B0B5000060
:10048000A3F5803A704700BF174B002B08BF134BF2
:100490009D46FFF7F5FF00218B460F461348144A8F
:1004A000121A07F0BDFF0E4B002B00D098470D4BE2
:1004B000002B00D098470020002104000D000D48BB
:1004C000002802D00C4807F087FC07F0CBFC200086
:1004D000290002F07FFA07F08BFC00BF0000080043
:1004E00000000000B547000000000020400E002082
:1004F00050400020D97D0000117E000072B603F04C
:1005000073FC03F009FC62B6FFF7BEFFFFF7FEBF06
:1005100080F309887047EFF309807047684680F3DD
:1005200009885A480078C00714BF0220032080F3CE
:1005300014887047DFF858C1EFF305831B0618BF16
:100540006047EFF31483DB0708BF604700DF7047A5
:10055000DFF840C1EFF305831B0618BF6047EFF3D8
:100560001483DB0708BF604700DF7047EFF30980A3
:10057000816911F8021CE1BB90E80F1010B5E0474B
:10058000BDE81040EFF3098C8CE80700424B93E87C
:100590000600914208BF704741B91EF0100F16D1F6
:1005A0003E49086820F00100086010E01EF0100FBE
:1005B00006BF2CED108A0120002081F825002CE9CF
:1005C000F00FC1F828C00CB405F07CFB0CBC1A601D
:1005D000D2F828C0BCE8F00F92F8250000280EBF22
:1005E0006FF0020E6FF0120EBCEC108A8CF30988CB
:1005F000704710B52A4A1268914209D8294C54F81C
:10060000214090E80F10A047EFF3098C8CE80F0011
:1006100010BD10B505F0C8FABDE810401E4B93E8B8
:100620000600914208BF7047EFF3098C1EF0100FCF
:1006300006BF2CED108A0120002081F825002CE94E
:10064000F00FC1F828C00CB405F03CFB0CBC1A60DC
:10065000D2F828C0BCE8F00F92F8250000280EBFA1
:100660006FF0020E6FF0120EBCEC108A8CF309884A
:10067000704710B505F008FBFFF7CEBF10B505F0C9
:1006800001FB05F001FBFFF7C7BF000070AA0000E7
:100690003555000051550000EC3F002034EF00E0DC
:1006A00000000000FCFFFFFF81F0004102E000BFFE
:1006B00083F0004330B54FEA41044FEA430594EA22
:1006C000050F08BF90EA020F1FBF54EA000C55EA5D
:1006D000020C7FEA645C7FEA655C00F0E2804FEA2E
:1006E0005454D4EB5555B8BF6D420CDD2C4480EA10
:1006F000020281EA030382EA000083EA010180EA40
:10070000020281EA0303362D88BF30BD11F0004F8D
:100710004FEA01314FF4801C4CEA113102D04042C3
:1007200061EB410113F0004F4FEA03334CEA1333FE
:1007300002D0524263EB430394EA050F00F0A78016
:10074000A4F10104D5F1200E0DDB02FA0EFC22FA11
:1007500005F2801841F1000103FA0EF2801843FA05
:1007600005F359410EE0A5F120050EF1200E012AF6
:1007700003FA0EFC28BF4CF0020C43FA05F3C01834
:1007800051EBE37101F0004507D54FF0000EDCF1AD
:10079000000C7EEB00006EEB0101B1F5801F1BD356
:1007A000B1F5001F0CD349085FEA30004FEA3C0C5A
:1007B00004F101044FEA445212F5800F80F09A8050
:1007C000BCF1004F08BF5FEA500C50F1000041EB54
:1007D000045141EA050130BD5FEA4C0C404141EB58
:1007E0000101013C28BFB1F5801FE9D291F0000F53
:1007F00004BF01460020B1FA81F308BF2033A3F102
:100800000B03B3F120020CDA0C3208DD02F1140CF8
:10081000C2F10C0201FA0CF021FA02F10CE002F133
:100820001402D8BFC2F1200C01FA02F120FA0CFC2C
:10083000DCBF41EA0C019040E41AA2BF01EB045175
:10084000294330BD6FEA04041F3C1CDA0C340EDC73
:1008500004F11404C4F1200220FA04F001FA02F3B6
:1008600040EA030021FA04F345EA030130BDC4F174
:100870000C04C4F1200220FA02F001FA04F340EA69
:100880000300294630BD21FA04F0294630BD94F01A
:10089000000F83F4801306BF81F480110134013D01
:1008A0004EE77FEA645C18BF7FEA655C29D094EA72
:1008B000050F08BF90EA020F05D054EA000C04BFF0
:1008C0001946104630BD91EA030F1EBF00210020DB
:1008D00030BD5FEA545C05D14000494128BF41F07A
:1008E000004130BD14F580043CBF01F5801130BDDE
:1008F00001F0004545F0FE4141F470014FF0000069
:1009000030BD7FEA645C1ABF194610467FEA655C19
:100910001CBF0B46024650EA013406BF52EA0335BB
:1009200091EA030F41F4002130BD00BF90F0000FA9
:1009300004BF0021704730B54FF4806404F13204E5
:100940004FF000054FF0000150E700BF90F0000F9E
:1009500004BF0021704730B54FF4806404F13204C5
:1009600010F0004548BF40424FF000013EE700BF95
:1009700042004FEAE2014FEA31014FEA02701FBF25
:1009800012F07F4393F07F4F81F06051704732F057
:100990007F4208BF704793F07F4F04BF41F40021AE
:1009A000704730B54FF4607401F0004521F000410C
:1009B0001CE700BF50EA010208BF704730B54FF096
:1009C00000050AE050EA010208BF704730B511F097
:1009D000004502D5404261EB41014FF4806404F1CF
:1009E00032045FEA915C3FF4D8AE4FF003025FEA55
:1009F000DC0C18BF03325FEADC0C18BF033202EBD9
:100A0000DC02C2F1200300FA03FC20FA02F001FA32
:100A100003FE40EA0E0021FA02F11444BDE600BFD5
:100A200070B54FF0FF0C4CF4E06C1CEA11541DBF84
:100A30001CEA135594EA0C0F95EA0C0F00F0DEF84F
:100A40002C4481EA030621EA4C5123EA4C5350EA34
:100A5000013518BF52EA033541F4801143F4801385
:100A600038D0A0FB02CE4FF00005E1FB02E506F016
:100A70000042E0FB03E54FF00006E1FB03569CF06B
:100A8000000F18BF4EF0010EA4F1FF04B6F5007F71
:100A900064F5407404D25FEA4E0E6D4146EB0606E3
:100AA00042EAC62141EA55514FEAC52040EA5E506C
:100AB0004FEACE2EB4F1FD0C88BFBCF5E06F1ED816
:100AC000BEF1004F08BF5FEA500E50F1000041EB4D
:100AD000045170BD06F0004646EA010140EA0200FA
:100AE00081EA0301B4EB5C04C2BFD4EB0C0541EA1C
:100AF000045170BD41F480114FF0000E013C00F331
:100B0000AB8014F1360FDEBF002001F0004170BD54
:100B1000C4F10004203C35DA0C341BDC04F114046D
:100B2000C4F1200500FA05F320FA04F001FA05F2F9
:100B300040EA020001F0004221F0004110EBD370C6
:100B400021FA04F642EB06015EEA430E08BF20EAF2
:100B5000D37070BDC4F10C04C4F1200500FA04F395
:100B600020FA05F001FA04F240EA020001F0004127
:100B700010EBD37041F100015EEA430E08BF20EA9A
:100B8000D37070BDC4F1200500FA05F24EEA020EE2
:100B900020FA04F301FA05F243EA020321FA04F011
:100BA00001F0004121FA04F220EA020000EBD370C8
:100BB0005EEA430E08BF20EAD37070BD94F0000FC8
:100BC0000FD101F00046400041EB010111F4801FFC
:100BD00008BF013CF7D041EA060195F0000F18BFAD
:100BE000704703F00046520043EB030313F4801FE9
:100BF00008BF013DF7D043EA0603704794EA0C0FA3
:100C00000CEA135518BF95EA0C0F0CD050EA4106B8
:100C100018BF52EA4306D1D181EA030101F0004135
:100C20004FF0000070BD50EA410606BF104619465D
:100C300052EA430619D094EA0C0F02D150EA013669
:100C400013D195EA0C0F05D152EA03361CBF1046AA
:100C500019460AD181EA030101F0004141F0FE4149
:100C600041F470014FF0000070BD41F0FE4141F4CD
:100C7000780170BD70B54FF0FF0C4CF4E06C1CEACD
:100C800011541DBF1CEA135594EA0C0F95EA0C0F82
:100C900000F0A7F8A4EB050481EA030E52EA03353D
:100CA0004FEA013100F088804FEA03334FF080555E
:100CB00045EA131343EA12634FEA022245EA11158B
:100CC00045EA10654FEA00260EF000419D4208BF3C
:100CD000964244F1FD0404F5407402D25B084FEAE9
:100CE0003202B61A65EB03055B084FEA32024FF495
:100CF00080104FF4002CB6EB020E75EB030E22BFF2
:100D0000B61A754640EA0C005B084FEA3202B6EBB1
:100D1000020E75EB030E22BFB61A754640EA5C0060
:100D20005B084FEA3202B6EB020E75EB030E22BFF0
:100D3000B61A754640EA9C005B084FEA3202B6EBF1
:100D4000020E75EB030E22BFB61A754640EADC00B0
:100D500055EA060E18D04FEA051545EA16754FEA12
:100D600006164FEAC30343EA52734FEAC2025FEA30
:100D70001C1CC0D111F4801F0BD141EA00014FF0BF
:100D800000004FF0004CB6E711F4801F04BF014390
:100D90000020B4F1FD0C88BFBCF5E06F3FF6AFAEAC
:100DA000B5EB030C04BFB6EB020C5FEA500C50F13C
:100DB000000041EB045170BD0EF0004E4EEA1131BF
:100DC00014EB5C04C2BFD4EB0C0541EA045170BDC6
:100DD00041F480114FF0000E013C90E645EA060E0A
:100DE0008DE60CEA135594EA0C0F08BF95EA0C0F38
:100DF0003FF43BAF94EA0C0F0AD150EA01347FF480
:100E000034AF95EA0C0F7FF425AF104619462CE756
:100E100095EA0C0F06D152EA03353FF4FDAE1046B9
:100E2000194622E750EA410618BF52EA43067FF40A
:100E3000C5AE50EA41047FF40DAF52EA43057FF49A
:100E4000EBAE12E74FF0FF3C06E000BF4FF0010CA5
:100E500002E000BF4FF0010C4DF804CD4FEA410C09
:100E60007FEA6C5C4FEA430C18BF7FEA6C5C1BD0D6
:100E700001B050EA410C0CBF52EA430C91EA030F57
:100E800002BF90EA020F0020704710F1000F91EAB4
:100E9000030F58BF994208BF90422CBFD8176FEA82
:100EA000E37040F0010070474FEA410C7FEA6C5C50
:100EB00002D150EA013C07D14FEA430C7FEA6C5C57
:100EC000D6D152EA033CD3D05DF8040B704700BF83
:100ED0008446104662468C461946634600E000BFD1
:100EE00001B5FFF7B7FF002848BF10F1000F01BDA3
:100EF0004DF808EDFFF7F4FF0CBF012000205DF86E
:100F000008FB00BF4DF808EDFFF7EAFF34BF0120F2
:100F100000205DF808FB00BF4DF808EDFFF7E0FF8B
:100F200094BF012000205DF808FB00BF4DF808EDDC
:100F3000FFF7CEFF94BF012000205DF808FB00BF43
:100F40004DF808EDFFF7C4FF34BF012000205DF825
:100F500008FB00BF4FEA410212F5001215D211D56D
:100F60006FF47873B3EB625212D94FEAC12343F0A6
:100F7000004343EA505311F0004F23FA02F018BF28
:100F8000404270474FF00000704750EA013005D1F1
:100F900011F0004008BF6FF0004070474FF00000B4
:100FA000704700BF4A0011D212F5001211D20DD5C0
:100FB0006FF47873B3EB62520ED44FEAC12343F05F
:100FC000004343EA505323FA02F070474FF0000009
:100FD000704750EA013002D14FF0FF3070474FF0B8
:100FE0000000704753B94AB9002908BF00281CBF48
:100FF0004FF0FF314FF0FF3001F0C0B8ADF1080CF9
:101000006DE904CE00F006F8DDF804E0DDE9022326
:1010100004B070472DE9F047089D04468C46002B2C
:1010200040F083808A42174647D9B2FA82F242B131
:10103000C2F1200024FA00F09140974040EA010CF0
:1010400094404FEA1748230CBCFBF8F61FFA87FEC2
:1010500008FB16C143EA014306FB0EF1994209D988
:10106000FB1806F1FF3080F01981994240F2168199
:10107000023E3B445B1AA4B2B3FBF8F008FB10330A
:1010800044EA034400FB0EFEA64509D93C1900F1D1
:10109000FF3380F00581A64540F2028102383C44CE
:1010A00040EA0640A4EB0E0400261DB1D440002304
:1010B000C5E900433146BDE8F08702B9FFDEB2FA68
:1010C00082F2002A50D1CB1B4FEA174E1FFA87F845
:1010D0000126B3FBFEFC210C0EFB1C3341EA03414D
:1010E00008FB0CF38B4207D979180CF1FF3002D2C0
:1010F0008B4200F2E9808446C91AA3B2B1FBFEF02C
:101100000EFB101143EA014408FB00F8A04507D983
:101110003C1900F1FF3302D2A04500F2D9801846F5
:10112000A4EB080440EA0C40BFE78B4209D9002D2C
:1011300000F0B1800026C5E9000130463146BDE827
:10114000F087B3FA83F6002E4AD18B4202D3824253
:1011500000F2B880841A61EB030101208C46002D57
:10116000A8D0C5E9004CA5E7C2F1200320FA03F698
:10117000974001FA02F04FEA174ED9403043030C72
:10118000B1FBFEF61FFA87F80EFB161143EA014386
:1011900006FB08F1994204FA02F409D9FB1806F19A
:1011A000FF3C80F08D80994240F28A80023E3B44B1
:1011B0005B1A81B2B3FBFEF00EFB103341EA034130
:1011C00000FB08F38B4207D9791800F1FF3C73D27A
:1011D0008B4271D902383944CB1A40EA064678E787
:1011E000C6F1200C03FA06F422FA0CF31C4320FA91
:1011F0000CF701FA06F34FEA144E21FA0CF11F43E3
:101200003B0CB1FBFEF91FFA84F80EFB191143EAFF
:10121000014109FB08FA8A4502FA06F200FA06F3D0
:1012200008D9611809F1FF3048D28A4546D9A9F199
:1012300002092144A1EB0A01BFB2B1FBFEF00EFB93
:10124000101147EA014700FB08F8B84507D9E7192C
:1012500000F1FF312ED2B8452CD90238274440EA9C
:101260000940A7EB0807A0FB02894F45C64649463F
:101270001AD317D05DB1B3EB0E0267EB010707FA83
:101280000CFCF2404CEA0202F740C5E900270026B8
:101290003146BDE8F0872E4628460BE70646E9E6CC
:1012A0001846FDE64345E5D2B8EB020E69EB0401B2
:1012B0000138DFE70846D2E760468DE78146B9E7A7
:1012C000664675E730464AE7ACF1020C394413E74D
:1012D00002383C4424E700BF03685A004CBF43F087
:1012E000004323F000431844704700BF2DE9F84342
:1012F00029B34F1E044615463E464FF0000808EB42
:10130000060101EBD171491004EBC1094846FFF712
:10131000E3FF0346C80008308F42204409D0AB42A7
:1013200009D8FFF7D9FF0138A8420AD201F1010814
:10133000E5E7AB4205D9884501D04E1EDFE74FF007
:1013400000094846BDE8F883012807D0022807D0E5
:10135000044B00280CBF1846002070470248704715
:10136000024870470D1A0000111A0000151A0000FB
:1013700030B5234B83B004468D1E3BB301A92846EC
:10138000AFF30080E8B101992A46FFF7AFFF0146AD
:10139000B8B1FFF7A1FF4B68A064012B2BD0002B45
:1013A00001F1040023DBFFF797FF0023C4E91303D7
:1013B0000368002B10DBFFF78FFF2061002003B0D4
:1013C00030BD00230920236103B030BD0D490E4814
:1013D000091AC9100191D7E7C3F30360FFF7B4FFFF
:1013E0000028206114BF0020092003B030BD012374
:1013F000C4E91303DCE7002323610520DFE700BF16
:101400000000000068B9000048B700000368DA0770
:1014100010B5044606D49B0700F1480009D500F03A
:101420004BFC2368590709D51A070ED5DB0613D5DF
:1014300010BD00F039FC23685907F5D404F1D00041
:1014400000F042FC23681A07F0D404F5A87000F0FD
:1014500043FC2368DB06EBD404F5E870BDE81040DC
:1014600000F07EBC0346006800B11844704700BF1E
:1014700009207047704700BF70B504460E46316CB6
:101480002046FFF775FF054688B9336C6361324625
:1014900023692146012098470828F0D0072806D163
:1014A0002846316CFFF7E6FF301D00F0F1FB06F037
:1014B0006DFC00BF2DE9F0470D1D064614460FCD0B
:1014C000ADF5727D0DF10C0CACE80F000FCDACE862
:1014D0000F000FCDACE80F0095E80F0002ADF768E4
:1014E000D6F818808CE80F0000232B6021E02B6CCD
:1014F00073614FF4F07229467AA800F041FE336917
:101500007AAA314650469847889BCDE90058214633
:101510006B648146334632460120B8470446E8B939
:101520004FF4F0727AA9284600F02AFEB9F1080FAC
:101530001BD1296C3046FFF71BFF09345FFA84FA90
:1015400081460028D3D0AB6B4AF01001CDE900589A
:1015500032466B6401203346B84708B14FF00909A1
:1015600048460DF5727DBDE8F087B9F1070FF5D15A
:101570002046296CFFF77EFF03A800F089FB00BF1F
:10158000406C7047F0B5CB6B0B640E1D0F460546E3
:101590000FCEF9B001AC0FC40FCE0FC40FCE0FC4E5
:1015A00096E80F004FF0FF3684E80F00009606E043
:1015B0002B696A46294698470828044608D110999D
:1015C0002846FFF7D5FE0028F2D0092079B0F0BDFB
:1015D0006846FFF71BFF062CF7D139462846FFF770
:1015E0004BFF00BF30B4DD6BC160826119461D64E2
:1015F000002230BC5EE700BF70B5C66843690B646B
:10160000AEB903690A4604460D46014602209847D2
:10161000072805D008280FD129462046FFF72CFFC0
:101620003046296CFFF726FF281D00F031FB012210
:10163000FFF740FF06F0AAFB06F0A8FBC2681AB14C
:10164000CA6B0A64002235E79CE700BF704700BF01
:10165000836801460BB1012018477047012912D059
:1016600009D873B90F2A0CD800EB820218465368C8
:10167000009A136070470339012994BF01200220AA
:101680007047022070470846704700BF10B584B00D
:10169000002303AC0A4600941946FFF7DFFF0398C6
:1016A00004B010BD012912D009D873B90F2A0CD883
:1016B00000EB8200009A12684260184670470339B6
:1016C000012994BF0120022070470220704708467C
:1016D000704700BF10B584B0002303AC03920094A0
:1016E0000A461946FFF7DEFF04B010BDF0B5D36B14
:1016F0001364151D8C4606460FCDADF50F7D17AC56
:101700000FC40FCD0FC40FCD0FC495E80F004FF0DD
:10171000FF3784E80F006546169710E0FFF7DAFF01
:10172000294616A8B047034616AA6946082083B979
:10173000049B9847052804460CD0092809D026990F
:101740006846FFF715FE03466A460C2116A8002BD3
:10175000E4D0092416A8FFF759FE20460DF50F7DA9
:10176000F0BD00BF2DE9F04FCC6C89B00D4654F8A8
:10177000041B0694174600F003081E46002B79D080
:101780000B0CDAB209048DF81D30022304EB82043D
:1017900005918DF81C302B6DB8F1020F08BFAC6BB2
:1017A00013F001030CD0384605A900F073FB18B9FB
:1017B000082009B0BDE8F08F092009B0BDE8F08F1E
:1017C000D4F800A0BAF1000FEDD0019300F00803A7
:1017D0000293022E4AD0B4F800A0B4F80290043468
:1017E000AA6C29F0010B0F2138469344FFF74EFFF6
:1017F000834539D82AF001025A44824294BF00201E
:1018000001204FEA490303F002030AF0010A43EA08
:101810000A03012B49D0022B32D0002BCCD1B8F1D6
:10182000000F02D0002840F0CD800434D4F800A08E
:10183000BAF1000FCDD105A9384600F02BFB0028E6
:10184000BAD1019B002BB3D00F213846FFF71EFF02
:101850000E2102463846FFF73DFF38466A4A0F21FF
:10186000FFF738FF0720A8E70020CAE7D4F8049064
:101870000834B5E7090203230591ADF81C308AE767
:10188000236823F0004BB8F1000F45D128B1029A2C
:10189000002A5CD0BBF1000F74D0002B00DA0434B6
:1018A0000BF1010B04EB8B04C0E7B8F1000F19D169
:1018B000B0B1D4E90023991C4FEAD2723FF47CAF57
:1018C00005F158010133049100F09080201DFFF7CD
:1018D000C9FD04AB01462846AFF3008000285BD168
:1018E0000834A3E70D213846D5F82090FFF7CEFE47
:1018F0008145F5D1AB6A9C42F2D12046FFF7ECFC62
:101900000F2102463846FFF7E5FE38462A460021F9
:10191000FFF7E0FE072050E70D213846D5F820906C
:10192000FFF7B4FE814501D02368B6E7AB6A9C425D
:10193000FAD104220021C5E90B12A318C5F828B07A
:101940006B6323688B4259DB01230193A8E705F100
:101950005803CDF80C8004F1040AB04691461E46A7
:101960000DE00496FFF77EFD04AB014600222846F9
:10197000AFF3008009F101090AF1040AE8B9D94579
:101980005046EED138460D21FFF780FE049B2862B9
:10199000C5E90934062010E781460D213846FFF7D6
:1019A00075FEB9F1020F286225D12B46049A43F83F
:1019B0002C2F6B62AC620620FFE646462368DDF8FA
:1019C0000C806AE72046FFF787FC04340246AC63CC
:1019D00028461446AFF3008000283FF4EDAE3846A9
:1019E00022460F21FFF776FE0720E6E638460D2156
:1019F000FFF74CFE2862049B6B62DBE70BF10100F2
:101A000004EB80007AE700BF000000000023A9E695
:101A10000123A7E60223A5E62DE9F0430646C3B05D
:101A200015461C46042900F2B980DFE801F09A53FC
:101A3000B7290300002C40F0B180102A00F2AE80DC
:101A40000368D80600F1F38020AF384600F092F921
:101A5000B06B0023012404FA03F22A42014604D0A9
:101A600051F8042B47F8232008460133042BF2D108
:101A7000B063384600F074F9002043B0BDE8F0834D
:101A8000032C40F08B8094B204EB1243102B4FEAEE
:101A9000124500F2838003681F0700F1D08020AF59
:101AA000384600F03BF907EBC501B56B54B10B4666
:101AB000E81A01EBC401E4001A5843F8042B8B42E6
:101AC000FAD125443846B56300F006F9002043B04A
:101AD000BDE8F083012C4FEA124895B25AD0052C8C
:101AE0005CD108EB0509B9F1200F57D8B8F10F0FF9
:101AF00077D9A946002D40F08880B36B6DB320AF35
:101B00004FF0000907EBC807043F03EBC50553F886
:101B1000041B47F8041FAB42F9D1B9F1000F0FD0F5
:101B20006F464146102938BF102107EBC1018439A7
:101B300003EBC90553F8040B41F8040FAB42F9D18C
:101B4000012C00F08480B8F10F0FB56345D9B9F1CD
:101B5000000F02D0684600F0B7F8002043B0BDE89F
:101B6000F083DCB9876B2346012094B206F1040CA4
:101B700000FA03F22242394604D051F8042B4CF803
:101B800023200F460133102BF2D115F40050E4D17D
:101B9000B76304E008EB0503102B03D9022043B020
:101BA000BDE8F083B8F10F0FF8D83368DA0706D52F
:101BB000304623F0030340F8483B00F079F820AFAB
:101BC000384600F075F8B36B002D99D11D460435E9
:101BD000B563384600F068F8BFE720A800F06CF85D
:101BE000B5E7B9F1100F40D9A9F110093368D90749
:101BF00008D523F00103304643F0020340F8483B88
:101C000000F05EF8B9F1000F32D033685A0720D4E3
:101C1000B8F10F0F25D96F463846C8F1100500F00E
:101C200057F8002DB36B7FF77CAF20AF6AE723F046
:101C30001003336006F5E87000F09CF804E723F029
:101C40000803036000F5A87000F068F827E720AFEC
:101C5000BDE7304623F0040340F8D03B00F038F8ED
:101C6000D6E720A800F02CF8D5E74FF00009BDE733
:101C7000B8F10F0F3FF641AF20AF384600F020F823
:101C8000B36B002D7FF43CAF384600F015F864E7E5
:101C900000F1340191E838009C46A6464CF8045DFA
:101CA00090E8FF0FE54600BD90EC210B704700BFA8
:101CB00080EC210B704700BF90EC200B704700BFF9
:101CC00080EC200B704700BFD0EC200B704700BFAA
:101CD000C0EC200B704700BFF0EC0201F0EC0211E9
:101CE000F0EC0221F0EC0231F0EC0241F0EC025198
:101CF000F0EC0261F0EC0271F0EC0281F0EC029188
:101D0000F0EC02A1F0EC02B1F0EC02C1F0EC02D177
:101D1000F0EC02E1F0EC02F1704700BFE0EC0201F0
:101D2000E0EC0211E0EC0221E0EC0231E0EC0241D7
:101D3000E0EC0251E0EC0261E0EC0271E0EC0281C7
:101D4000E0EC0291E0EC02A1E0EC02B1E0EC02C1B7
:101D5000E0EC02D1E0EC02E1E0EC02F1704700BF00
:101D6000B0FC0181B0FC0191B0FC01A1B0FC01B15B
:101D7000704700BFA0FC0181A0FC0191A0FC01A163
:101D8000A0FC01B1704700BFEC4600B52DE9005042
:101D90002DE9FF1F4FF000032DE90C0001A9FFF70B
:101DA000F1FBDDF840E012B0704700BFEC4600B533
:101DB0002DE900502DE9FF1F4FF000032DE90C0025
:101DC00001A9FFF719FCDDF840E012B0704700BF31
:101DD000EC4600B52DE900502DE9FF1F4FF0000340
:101DE0002DE90C0001A9FFF729FCDDF840E012B055
:101DF000704700BFEC4600B52DE900502DE9FF1FEC
:101E00004FF000032DE90C0001ABFFF7EBFBDDF811
:101E100040E012B0704700BFEC4600B52DE900501D
:101E20002DE9FF1F4FF000032DE90C0001AAFFF779
:101E30005DFCDDF840E012B0704700BF027A7AB96D
:101E4000437AA3B14268013B10B443721368032183
:101E5000141D01721A024460026010BC180E704713
:101E60000368013A02721A020260180E7047B0202D
:101E7000704700BF00B585B003AA00230092194641
:101E80000C22FFF7EBFB039805B05DF804FB00BFE5
:101E9000F0E700BF2DE9F043054685B00E464FF050
:101EA00000083046FFF7CAFFB028044600F0B280B1
:101EB000070620D500F0F003802B4DD0902B36D0B4
:101EC000A02B60D0B02B74D0C02B00F08B8000F022
:101ED000F803D02B0BD100F00702013242F40022AC
:101EE000052301212846FFF797FD0028D9D00920B6
:101EF00005B0BDE8F0830DF10C09002319468700F9
:101F0000CDF800900D222846FFF7A8FBFFB2039BF7
:101F1000CDF80090043760064CBFDF1BFF1800238C
:101F200019460D2228460397FFF7BCFBB9E700F0DE
:101F30000D030D2BDBD003AF002300F00F02194679
:101F400000972846FFF78AFB0023009719460D22C9
:101F50002846FFF7A7FBA4E73046FFF76FFF2402F0
:101F60002043B0F5004FC2D004010023A2B21946AD
:101F70002846FFF751FD0028B9D114F4004F18BFCF
:101F80004FF001088DE7C24302F007034FF47F6270
:101F90001A41010702F47F624FF0000348BF42F488
:101FA000804219462846FFF737FD00283FF479AFF5
:101FB0009DE7B12833D0B22800F08B80B32839D008
:101FC00000F0FC03B42B92D000F007020132012391
:101FD00042F4002219462846FFF71EFD00283FF470
:101FE00060AF84E7C62842D0C7284CD000F0F80381
:101FF000C02B5BD0C82860D0C9287FF478AF3046AA
:10200000FFF71CFF020300F00F0002F47022013002
:10201000024365E7B8F1000F18D0002068E73046AA
:10202000FFF70CFF024600283FF461AF10F0F00309
:10203000D0D05CE73046FFF701FF010300F00F004E
:1020400001F47021421C01230A43C3E703AC434659
:102050000E22414600942846FFF700FB00942846D4
:1020600043460F224146FFF71DFB404640E73046FE
:10207000FFF7E4FE010300F00F0001F47021421CA1
:1020800003230A43A6E73046FFF7D8FE024600289E
:102090003FF42DAF10F0F0037FF429AF0421284660
:1020A000FFF7BAFC00283FF4FCAE20E700F00F0277
:1020B0000132032342F420228CE73046FFF7BEFEB4
:1020C00000F0F00200F00F031032013343EA023255
:1020D00006E700230DF10C090D221946CDF80090FA
:1020E0002846FFF7BBFA3046FFF7A8FE02064FF07E
:1020F00002070CD5039B00F07F00B8400344304634
:102100000393FFF79BFE030607F10707F2D4039B37
:10211000CDF8009000F07F0403F50172BC4000236D
:10212000144419460D2228460394FFF7BBFAB8E67B
:1021300010B5C26C84B0536803248DF80C401B02A8
:1021400002F108040846D279019301A902948DF89E
:102150000D20FFF79FFE04B010BD00BF08B5FFF7CC
:1021600097FE806C08BD00BF08B5FFF791FEC06CFC
:10217000C379023300EB830008BD00BF704700BF86
:10218000844641EA000313F003036DD1403A41D382
:1021900051F8043B40F8043B51F8043B40F8043B41
:1021A00051F8043B40F8043B51F8043B40F8043B31
:1021B00051F8043B40F8043B51F8043B40F8043B21
:1021C00051F8043B40F8043B51F8043B40F8043B11
:1021D00051F8043B40F8043B51F8043B40F8043B01
:1021E00051F8043B40F8043B51F8043B40F8043BF1
:1021F00051F8043B40F8043B51F8043B40F8043BE1
:1022000051F8043B40F8043B51F8043B40F8043BD0
:10221000403ABDD2303211D351F8043B40F8043B70
:1022200051F8043B40F8043B51F8043B40F8043BB0
:1022300051F8043B40F8043B103AEDD20C3205D380
:1022400051F8043B40F8043B043AF9D2043208D078
:10225000D2071CBF11F8013B00F8013B01D30B88EA
:1022600003806046704700BF082A13D38B078DD0C8
:1022700010F003038AD0C3F10403D21ADB071CBF9A
:1022800011F8013B00F8013B80D331F8023B20F804
:10229000023B7BE7043AD9D3013A11F8013B00F83D
:1022A000013BF9D20B7803704B7843708B788370C5
:1022B00060467047000000000000000000000000C1
:1022C00001F0FF01102A2BDB10F0070F08D010F8E7
:1022D000013B013A8B422DD010F0070F42B3F6D1EB
:1022E000F0B441EA012141EA014122F007047FF004
:1022F00000070023F0E80256083C85EA010586EA5B
:10230000010685FA47F5A3FA87F586FA47F6A5FA96
:1023100087F68EB9EED1F0BC01F0FF0102F00702A2
:1023200032B110F8013B013A83EA010313B1F8D14D
:102330000020704701387047002D06BF354603382E
:10234000073815F0010F07D1013015F4807F02BF67
:10235000013015F4C03F0130F0BC0138704700BFB8
:10236000000000000000000000000000000000006D
:10237000000000000000000000000000000000005D
:1023800090F800F06DE9024520F007016FF0000CB5
:1023900010F0070491F820F040F049804FF000045D
:1023A0006FF00700D1E9002391F840F000F1080038
:1023B00082FA4CF2A4FA8CF283FA4CF3A2FA8CF370
:1023C0004BBBD1E9022382FA4CF200F10800A4FAD7
:1023D0008CF283FA4CF3A2FA8CF3E3B9D1E904232B
:1023E00082FA4CF200F10800A4FA8CF283FA4CF362
:1023F000A2FA8CF37BB9D1E9062301F1200182FA1C
:102400004CF200F10800A4FA8CF283FA4CF3A2FA21
:102410008CF3002BC6D0002A04BF04301A4612BA2F
:10242000B2FA82F2FDE8024500EBD2007047D1E932
:10243000002304F00305C4F100004FEAC50514F0C1
:10244000040F91F840F00CFA05F562EA05021CBF92
:1024500063EA050362464FF00004A9E780B590B037
:1024600000AF78600B46FB70FB78002B27D107F19B
:10247000240300221A605A609A60DA601A615A6175
:102480002D4A7B6852F833307B62012387F828306D
:10249000012387F829304FF0FF333B6307F1240312
:1024A000184604F0ADFB244A7B68DB00134401228C
:1024B0001A717B68DB00204A1344FB6336E0FB782B
:1024C000012B31D107F10C0300221A605A609A6087
:1024D000DA601A615A61184A7B6852F83330FB603F
:1024E00001233B754FF0FF33BB6107F10C03184626
:1024F00004F0F8FB104A7B68DB00134402221A71D7
:102500007B68292B0AD97B682C2B07D80A4A7B6861
:1025100052F833300121184604F020FC7B68DB00C0
:10252000054A1344FB6301E00023FB63FB6B184681
:102530004037BD4680BD00BF0000002080B586B09A
:1025400000AF78607B683B613B69002B0BD03B6937
:102550001B79012B07D13B691B68184604F00CFC62
:102560000346FB7501E00023FB753B691B681B0AF2
:10257000DBB2FB603B691B68DBB2BB60FB68022B14
:1025800002D1BB68062B05D0FB68002B09D1BB68C4
:10259000042B06D1FB7D002B0CBF01230023DBB2F3
:1025A000FB75FB7D18461837BD4680BD80B586B0EB
:1025B00000AF78600B46FB707B687B617B69002B0A
:1025C0002FD07B691B79022B2BD17B691B681B0ADF
:1025D000DBB23B617B691B68DBB2FB603B69012BB3
:1025E00005D1FB68162B08D0FB68152B05D03B697D
:1025F000042B0FD1FB681A2B0CD17B691A68FB786E
:10260000012B14BF01230023DBB21946104604F04E
:10261000A5FB06E07B691B68FA781146184604F0B2
:102620009DFB00BF1837BD4680BD80B485B000AFAC
:1026300078607B68FB60FB68002B0ED0FB681B7921
:10264000022B03D1FB6800221A7106E0FB681B799C
:10265000012B02D1FB6800221A7100BF1437BD465E
:102660005DF8047B7047000080B584B000AFF8606F
:10267000B9601346FB71BB681F2B05D90D4B0E4A81
:10268000FF210E4805F08AFBFB68BA6853F8223038
:1026900023F0807323F4E063FA79120202F4E0621B
:1026A00043EA0201FB68BA6843F8221000BF103702
:1026B000BD4680BD8CA9000020AA000098A900009A
:1026C00080B483B000AF78600B46FB707B681B68FA
:1026D00023F01802FB78DB0003F018031A437B6831
:1026E0001A6000BF0C37BD465DF8047B70470000E0
:1026F00080B58EB000AF786187ED020B87ED001BCF
:10270000524A7B695B01134411331B78002B40F064
:102710008780002387F82830002387F8293000239A
:1027200087F82A308023FB62484A7B695B011344A7
:102730001868464A7B695B01134404331968434AAD
:102740007B695B01134410331B781A46FFF78CFF3B
:102750003E4A7B695B01134408331B6807F128027A
:102760001146184604F074F8384A7B695B0113443B
:1027700008331B68DBB200220121184604F0EEF892
:10278000324A7B695B011344113304221A702F4AC9
:102790007B695B01134403F11801D7E90223C1E906
:1027A000002302233B7600237B76284A7B695B016A
:1027B00013441833D3E9002310461946FEF7F2FB01
:1027C0000346FB61D7E90001FEF7ECFB03463B62E1
:1027D0000023BB841D4A7B695B01134408331B68DB
:1027E0001B4A52F823303B630021386BFFF768FF28
:1027F000164A7B695B01134408331868134A7B69E6
:102800005B0113440C331B68DAB207F11803194655
:1028100004F002F97B695B010C4A13447B630FE00F
:102820000A4A7B695B01134411331B78042B05D1E1
:102830007B695B01054A13447B6301E000237B63F2
:102840007B6B18463837BD4680BD00BF780100203D
:10285000BCAF000080B483B000AF786000BF0C371D
:10286000BD465DF8047B704780B58AB000AFF86064
:1028700087ED000BFB687B627B6A002B2CD07B6AA8
:102880005B7C042B28D102233B7400237B747B6A7E
:10289000D3E9062310461946FEF784FB03467B6105
:1028A000D7E90001FEF77EFB0346BB610023BB8333
:1028B0007B6A9B680A4A52F823303B620021386ADF
:1028C000FFF7FEFE7B6A98687B6ADB68DAB207F185
:1028D0001003194604F0A0F800BF2837BD4680BD9C
:1028E000BCAF000080B485B000AF78607B68FB604F
:1028F000FB68002B06D0FB685B7C042B02D1FB68D5
:1029000000225A7400BF1437BD465DF8047B70473F
:1029100080B483B000AF786000BF0C37BD465DF86F
:10292000047B704780B586B000AF7861184B1B6898
:102930001B68002B0CBF01230023DBB21A46154B8A
:102940001A7011E03B461449184602F024F800F0D2
:1029500027FA0F4B1B681B68002B14BF01230023B1
:10296000DBB21A460D4B1A700A4B1B78DBB2002BF8
:10297000E8D1084B00221A70786900F011F80020A5
:1029800001F062FF002318461837BD4680BD00BF26
:1029900034AA000038040020680E00205F0E0020DA
:1029A00080B582B000AF7860074B01221A60074BF8
:1029B00000221A7001F046F8054801F0D9FF002303
:1029C00018460837BD4680BD840E0020380400201C
:1029D000600E002080B586B000AF7861396101F0EB
:1029E000F1FA01F0B9FC0A4B1B6800221A6000F0F2
:1029F00023FE00209FED070A01F078FE3B460649C2
:102A0000184601F0C8FF002318461837BD4680BDA0
:102A100034AA00006F12833A600E002080B58AB09D
:102A200000AFF860B9607A604FF000024FF0000329
:102A3000C7E908237B68FB61BB6803F18043013B66
:102A40009B00FA6813441B68002B36DA01237B6174
:102A50000023BB612CE0BB699B00FA6813441B6830
:102A6000DB433B617A693B6913447B617869FDF71D
:102A70005DFF02460B46F86943EC102B05F0ACF8FD
:102A800053EC102BD7E90801FDF712FE02460B4666
:102A9000C7E908237A693B699A4234BF01230023BE
:102AA000DBB27B61FB692033FB61BB690133BB6136
:102AB000BA69BB689A42CEDB25E00023BB611EE009
:102AC000BB699B00FA6813441B681846FDF72EFF8C
:102AD00002460B46F86943EC102B05F07DF853ECE9
:102AE000102BD7E90801FDF7E5FD02460B46C7E9C3
:102AF0000823FB692033FB61BB690133BB61BA6901
:102B0000BB689A42DCDBD7E9082343EC172BB0EE15
:102B1000470AF0EE670A2837BD4680BD80B400AF93
:102B20000F4B28221A810E4B01229A730C4B012263
:102B3000DA730B4B00225A73094B00225A74084B6C
:102B400000229A74064B00221A73054B0022DA7495
:102B5000034B01221A7400BFBD465DF8047B704729
:102B6000880E002080B400AF0F4B28221A810E4B34
:102B700001229A730C4B0122DA730B4B00225A7319
:102B8000094B00225A74084B00229A74064B00220B
:102B90001A73054B00221A74034B0122DA7400BF2A
:102BA000BD465DF8047B7047880E002080B500AFFD
:102BB0003A4BB3F94030012B0AD1394B022283F84A
:102BC0003421374B0022C3F83021FFF7CBFF63E0FD
:102BD000324BB3F94030022B26D1314B0B2283F814
:102BE00034212F4B0022C3F830212E4B00221A75BE
:102BF0002C494FF000022C4BC1E90023294B012244
:102C0000DA73284B00225A73264B00225A74254B44
:102C100000229A74234B00221A73224B00221A744A
:102C2000204B0122DA7437E01C4BB3F94030032B00
:102C30000AD11B4B012283F83421194B0022C3F81F
:102C40003021FFF76BFF27E0144BB3F94030042B22
:102C500022D1134B0A2283F83421114B0022C3F8EE
:102C60003021104B35225A810E4B00221A750D4B24
:102C70000122DA730B4B00225A730A4B00225A745A
:102C8000084B00229A74074B00221A73054B00224E
:102C9000DA74044B01221A7400BF80BD4004002086
:102CA000A00E0020880E002000804A4080B584B02D
:102CB00000AF87ED000B97ED000B04F0FDFE51EC2B
:102CC000100B4FF00002334BFEF71CF90346002BAC
:102CD00050D04FF00002304BD7E90001FEF726F943
:102CE0000346002B17D04FF000022B4BD7E9000111
:102CF000FDF7E0FC02460B4643EC172BB0EE470A0B
:102D0000F0EE670A04F0E4FEB0EE407AF0EE607A8E
:102D100087ED027B32E04FF00002204BD7E9000143
:102D2000FEF70EF90346002B0CD04FF000024FF0D7
:102D30000003D7E90001FDF773FE02460B46C7E921
:102D400002231BE04FF00002134BD7E90001FDF70F
:102D5000AFFC02460B4643EC172BB0EE470AF0EEF1
:102D6000670A04F029FEB0EE407AF0EE607A87ED53
:102D7000027B03E0D7E90023C7E90223D7E9022356
:102D800043EC172BB0EE470AF0EE670A1037BD464A
:102D900080BD00BF000030430000E03F0000E0BF06
:102DA000B0B588B000AFAF4BD3E90E01AE4BD3E95D
:102DB0000023FEF79DF80346002B05D1AA4BD3E96B
:102DC0000023A849C1E90E23A64B1B6B1846FFF749
:102DD000B5FB03467B7700220221A448FFF71EFEC5
:102DE00055EC104BA04BB3F938301846FDF7AEFD4B
:102DF00002460B4620462946FDF73CFF02460B469D
:102E0000C7E90423002202219948FFF707FE55EC89
:102E1000104B954BB3F93E301846FDF797FD02462F
:102E20000B4620462946FDF725FF02460B46C7E91B
:102E300002238C4BD3E906018B4BD3E90223FEF727
:102E400057F80346002B05D1874BD3E90223854968
:102E5000C1E90623834B1B691846FFF76FFB034646
:102E6000FB71804BD3F83031B3F1FF3F06D07D4B7F
:102E7000D3F8303101337B4AC2F83031794B93F8C3
:102E80003531002B08D1774B012283F83521754B62
:102E9000072283F8342146E3724B93F83431013B27
:102EA000092B00F2E88201A252F823F0D52E00008F
:102EB0004B2F0000B12F00001730000079300000C8
:102EC000D530000041310000473100008B32000056
:102ED000F3330000674B28221A81664B01229A7354
:102EE000644B0122DA73634B00225A74614B002257
:102EF0009A74604B0022DA745E4B01221A74594BAB
:102F0000D3F8304197ED040B04F056FD53EC102B31
:102F100010461946FEF746F803469C42C0F0F08280
:102F2000504B042283F834214E4B0022C3F8302149
:102F3000504B00229A734F4B00225A734D4B002284
:102F40001A744C4B01221A73DAE24A4B28221A8176
:102F5000484B01229A73474B0122DA73454B0022FA
:102F60005A74444B00229A74424B00221A74414B0B
:102F70000122DA743B4BD3F830313B4AB2F93A20A4
:102F80009342C0F0BF82374B052283F83421354B82
:102F90000022C3F83021374B00229A73354B0022B0
:102FA0001A73344B0022DA74324B01225A73A9E2AD
:102FB000304B00229A732F4B0122DA732D4B0022E3
:102FC0001A742C4B00225A742A4B00229A74294BF3
:102FD0000022DA74234BD3F83031234AB2F93A2075
:102FE0009342C0F091821F4B0A2283F834211D4B7B
:102FF0000022C3F830211F4B35225A811D4B00227D
:103000001A751C4B00225A731A4B00221A73194B63
:1030100001221A7478E2174B00229A73154B012291
:10302000DA73144B00221A74124B00225A74114B9B
:1030300000229A740F4B0022DA740A4BD3F8303115
:10304000094AB2F93A209342C0F06082054B01224E
:1030500083F83421034B0022C3F83021FFF75EFDD3
:1030600054E200BFA00E00204004002060040020B5
:1030700070040020880E0020BE4B00229A73BD4BC6
:103080000122DA73BB4B00221A74BA4B00225A7425
:10309000B84B00229A74B74B0022DA74B64BD3F8BF
:1030A000304197ED040B04F087FC53EC102B1046D5
:1030B0001946FDF777FF03469C42C0F02982AE4BCC
:1030C000022283F83421AC4B0022C3F83021FFF7F1
:1030D00049FD1DE2A74B00221A75A64B00229A73E8
:1030E000A44B0122DA73A34B00221A74A14B0022D5
:1030F0005A74A04B00229A749E4B0022DA749E4BA5
:10310000D3F830319D4AB2F93A209342C0F002829E
:10311000994B0B2283F83421974B0022C3F83021BE
:1031200094494FF00002964BC1E90023914B0022D5
:103130005A73904B00221A738E4B0122DA74E9E124
:10314000FFF734FDEFE18B4B01221A75894B2822E2
:103150001A81884B01229A73FB79002B23D0864B6E
:103160000A2283F83421844B0022C3F83021814B9A
:1031700035225A817F4B00221A757E4B0122DA7369
:103180007C4B00225A737B4B00225A74794B0022ED
:103190009A74784B00221A73764B0022DA74754BBE
:1031A00001221A74B8E1754BD3E90623D7E902016D
:1031B000FDF77EFA02460B4614461D466F4BB3F9E7
:1031C0003A301846FDF7C2FB02460B462046294618
:1031D000FDF76EFA02460B4643EC172BB0EE470A9A
:1031E000F0EE670AFFF762FDB0EE407AF0EE607A2B
:1031F00087ED047B4FF00002624BD7E90401FDF735
:1032000081FE0346002B14D04FF000025E4BD7E93D
:103210000401FDF78BFE0346002B06D0D7E904011D
:10322000FDF798FE0346FB8306E04FF40043FB8363
:1032300002E047F6FF73FB834F4BD3F83021B7F919
:103240001E309A42C0F068814B4B032283F8342130
:10325000494B0022C3F83021464B00229A73454B5C
:103260000122DA73434B00225A73424B00221A7434
:10327000404B00225A743F4B00229A743D4B00226F
:10328000DA743C4B01221A7346E13A4B01221A755B
:10329000384B28221A81374B01229A737B7F002BEF
:1032A00026D0354B0B2283F83421334B0022C3F850
:1032B0003021304B00221A752E494FF00002304B5E
:1032C000C1E900232B4B0122DA732A4B00225A73E7
:1032D000284B00225A74274B00229A74254B002257
:1032E0001A73244B00221A74224B0122DA7415E15E
:1032F000224BD3E90423D7E90201FDF7D9F90246AD
:103300000B4614461D461D4BB3F93A301846FDF7DF
:103310001DFB02460B4620462946FDF7C9F9024629
:103320000B4643EC172BB0EE470AF0EE670AFFF7A7
:10333000BDFCB0EE407AF0EE607A87ED047B4FF092
:103340000002104BD7E90401FDF7DCFD0346002B1A
:1033500020D04FF000020C4BD7E90401FDF7E6FD49
:103360000346002B12D0D7E90401FDF7F3FD034615
:10337000FB8312E0880E0020A00E002040040020F5
:1033800000804A400000E0400000E0C04FF40043ED
:10339000FB8302E047F6FF73FB83A24BD3F8302197
:1033A000B7F91E309A42C0F0B9809E4B062283F8CE
:1033B00034219C4B0022C3F830219B4B00221A750C
:1033C000994B00229A73984B0122DA73964B002294
:1033D0001A73954B00221A74934B00225A74924B25
:1033E00000229A74904B0022DA748F4B01225A7398
:1033F00094E08D4B35225A818B4B00221A758A4BF3
:103400000122DA73884B00225A74874B00229A7487
:10341000854B0022DA74844B01221A74814BD3F855
:103420003041824B93ED067BB0EE470AF0EE670A1F
:1034300004F0C2FA53EC102B10461946FDF7B2FD0A
:1034400003469C426CD3774B082283F83421754B9A
:103450000022C3F83021744B01221A75724B0022EE
:103460001A73714B00225A736F4B28221A816E4BCC
:1034700001229A7354E06C4B00221A756A494FF08E
:1034800000026B4BC1E90023674B0122DA73664BE4
:1034900000225A74644B00229A74634B00221A74FF
:1034A000614B0122DA745F4BD3F830415F4B93EDEF
:1034B000047BB0EE470AF0EE670A04F07DFA53ECA5
:1034C000102B10461946FDF76DFD03469C4229D38B
:1034D000544B092283F83421524B0022C3F8302187
:1034E000514B01221A75504B00221A734E4B002289
:1034F0005A734D4B28221A814B4B01229A7311E0CB
:1035000000BF10E000BF0EE000BF0CE000BF0AE00B
:1035100000BF08E000BF06E000BF04E000BF02E01B
:1035200000BF00E000BF3F4BD3F818313E4A92ED98
:10353000007BB0EE470AF0EE670A1846FFF794F9F1
:10354000384B1B6D384A127B11461846FFF72EF890
:10355000344B5B6E344A527B11461846FFF726F80F
:10356000304BD3F80441304BB3F908301846FDF71F
:10357000EDF902460B4643EC102B2046FFF774F999
:10358000284BD3F8DC30284A927B11461846FFF7C7
:103590000DF8244BD3F8C830234AD27B1146184685
:1035A000FFF704F81F4BD3F8B4301F4A127C1146C2
:1035B0001846FEF7FBFF1B4BD3F8A0301A4A527C8B
:1035C00011461846FEF7F2FF164BD3F88C30164A18
:1035D000927C11461846FEF7E9FF124B9B6F124A88
:1035E000D27C11461846FEF7E1FF0E4BD3F8F030BF
:1035F0000D4A127D11461846FEF7D8FF094BD3F845
:103600002C41094BB3F90A301846FDF79FF90246E1
:103610000B4643EC102B2046FFF726F900BF20375E
:10362000BD46B0BDA00E0020880E00204004002042
:1036300000804A400000000080B584B000AFBE4B5F
:1036400000221A6018220021BC4804F0E9FE4FF461
:10365000A4720021BA4804F0E3FEB94B002283F8BB
:103660002020B74B012283F84321B64BD3E9002336
:10367000B349C1E90E23B44BFB60B14B01225A623E
:1036800000210120FEF7EAFE0246FB681A61AC4BFE
:10369000012283F82820AA4B00221A70A84B01228D
:1036A00083F84221A74BD3E90223A549C1E90623A8
:1036B000A34BFB60A24B01225A6000210020FEF7C1
:1036C000CDFE0246FB681A619D4B01221A729C4B8B
:1036D000002283F808219A4B012283F837219B4B63
:1036E000BB60974B0122C3F80C219FED8D1B9FED12
:1036F0008E0B0320FEF7FCFF0246BB681A61904B5D
:10370000D3F818311846FFF7A5F88D4B012283F83E
:1037100010218B4B002283F84020894B012283F833
:1037200039218B4B7B60864B01225A640121082092
:10373000FEF794FE02467B681A61814B012283F8F2
:1037400048207F4B002283F854207D4B012283F8D0
:103750003A21804B7B607A4B01229A650121092036
:10376000FEF77CFE02467B681A61754B012283F8E6
:103770005C20734B002283F8F420714B012283F804
:103780003621754BBB606E4B0122C3F8F8209FEDCC
:10379000681B9FED650B0520FEF7AAFF0246BB687C
:1037A0001A61674BD3F804311846FFF753F8644B9E
:1037B000012283F8FC20624B002283F8CC20604B6E
:1037C000012283F84021654B7B605D4B0122C3F8E9
:1037D000D02001210220FEF741FE02467B681A61DB
:1037E000574B012283F8D420554B002283F8B82090
:1037F000534B012283F83F21594B7B60504B0122F0
:10380000C3F8BC2001210A20FEF728FE02467B688F
:103810001A614B4B012283F8C020494B002283F8E8
:10382000A420474B012283F83E214E4B7B60444B42
:103830000122C3F8A82001210B20FEF70FFE02464B
:103840007B681A613E4B012283F8AC203C4B00227E
:1038500083F890203A4B012283F83D21424B7B6054
:10386000374B0122C3F8942001210420FEF7F6FD16
:1038700002467B681A61324B012283F89820304B54
:10388000002283F87C202E4B012283F83C21374B09
:103890007B602B4B0122C3F8802001210720FEF71B
:1038A000DDFD02467B681A61254B012283F88420E6
:1038B000234B002283F86820214B012283F83B210F
:1038C0002B4B7B601E4B0122DA6601210C20FEF798
:1038D000C5FD02467B681A61194B012283F87020EE
:1038E000174B002283F8E020154B012283F8412179
:1038F000204B7B60124B0122C3F8E42001210D20F4
:10390000FEF7ACFD02467B681A610D4B012283F87D
:10391000E8200B4B002283F81C212DE0AFF3008040
:103920000000000000804A400000000000409F406E
:103930000000000000004440E80F0020880E002036
:10394000A00E002040040020C00E0020A80F002080
:10395000E00E0020F40E0020940F00206C0F0020D9
:10396000580F0020440F0020300F00201C0F0020B3
:10397000080F0020800F00202F4B012283F83821F0
:103980002E4BBB602C4B0122C3F820219FED261B40
:103990009FED270B0620FEF7ABFE0246BB681A61BF
:1039A000254BD3F82C311846FEF754FF224B012249
:1039B00083F82421204B0022C3F830211E4B002223
:1039C00083F835211C4B002283F834211C4B002244
:1039D0001A731B4B00225A73194B00221A81184B81
:1039E00000229A73164B0022DA73154B00221A74C8
:1039F000134B00225A74124B00229A74104B00226F
:103A0000DA740F4B00221A750D494FF000024FF087
:103A10000003C1E900230A4B00225A8100BF10377E
:103A2000BD4680BDAFF300800000000000804A402A
:103A30000000000000409F40A00E0020BC0F0020AE
:103A4000880E002080B500AFB24B93F82030002BD9
:103A500011D1B04B012283F82020AE4B5B6A012BC1
:103A600009D1AC4B93F82830002B04D0A94B1B6B29
:103A70001846FEF7DAFDA74B1B78002B0FD1A54B9C
:103A800001221A70A34B5B68012B08D1A14B1B7A52
:103A9000002B04D09F4B1B691846FEF7C6FD9D4BBB
:103AA00093F80831002B19D19A4B012283F8082191
:103AB000984BD3F80C31012B10D1964B93F8103161
:103AC000002B0BD0934BD3F818311846FEF70AFFA2
:103AD000904BD3F818311846FEF71AFF8D4B93F828
:103AE0004030002B11D18B4B012283F84020894BB1
:103AF0005B6C012B09D1874B93F84830002B04D025
:103B0000844B1B6D1846FEF790FD824B93F85430A2
:103B1000002B11D17F4B012283F854207D4B9B6DEC
:103B2000012B09D17B4B93F85C30002B04D0794BEF
:103B30005B6E1846FEF779FD764B93F8F430002B58
:103B400019D1744B012283F8F420724BD3F8F8306A
:103B5000012B10D16F4B93F8FC30002B0BD06D4B29
:103B6000D3F804311846FEF7BDFE6A4BD3F8043192
:103B70001846FEF7CDFE674B93F8CC30002B13D1DF
:103B8000644B012283F8CC20624BD3F8D030012B58
:103B90000AD1604B93F8D430002B05D05D4BD3F89D
:103BA000DC301846FEF741FD5A4B93F8B830002B35
:103BB00013D1584B012283F8B820564BD3F8BC30B0
:103BC000012B0AD1534B93F8C030002B05D0514B39
:103BD000D3F8C8301846FEF728FD4E4B93F8A430B2
:103BE000002B13D14B4B012283F8A420494BD3F86F
:103BF000A830012B0AD1474B93F8AC30002B05D0ED
:103C0000444BD3F8B4301846FEF70FFD414B93F800
:103C10009030002B13D13F4B012283F890203D4B75
:103C2000D3F89430012B0AD13A4B93F89830002BFB
:103C300005D0384BD3F8A0301846FEF7F6FC354BCC
:103C400093F87C30002B13D1324B012283F87C2077
:103C5000304BD3F88030012B0AD12E4B93F88430AF
:103C6000002B05D02B4BD3F88C301846FEF7DDFC2B
:103C7000284B93F86830002B11D1264B012283F892
:103C80006820244BDB6E012B09D1224B93F8703056
:103C9000002B04D01F4B9B6F1846FEF7C6FC1D4B34
:103CA00093F8E030002B13D11A4B012283F8E02067
:103CB000184BD3F8E430012B0AD1164B93F8E830B7
:103CC000002B05D0134BD3F8F0301846FEF7ADFCAF
:103CD000104B93F81C31002B19D10E4B012283F8A5
:103CE0001C210C4BD3F82031012B10D1094B93F838
:103CF0002431002B0BD0074BD3F82C311846FEF79C
:103D0000F1FD044BD3F82C311846FEF701FE00BF3D
:103D100080BD00BFA00E002080B489B000AF294B49
:103D2000FB60294A294B9A4216D00023FB610AE026
:103D3000264AFB6952F823202349FB6941F82320D6
:103D4000FB690133FB61FB689B08FA699A42EFD378
:103D50001F4B1D4A9A6002E01D4B1C4A9A601D4B86
:103D6000BB611D4B7B611D4BBB60BA687B69D31A7D
:103D7000FB6107E07A69531C7B61BB69591CB9611F
:103D800012781A70FB695A1EFA61002BF2D1144B9B
:103D90003B61144B7B607A683B69D31AFB6104E09A
:103DA0003B695A1C3A6100221A70FB695A1EFA617B
:103DB000002BF5D100BF00BF2437BD465DF8047B62
:103DC000704700BF0000000000000000000000007D
:103DD00000ED00E00000002074B90000B4C700004E
:103DE000400E00205040002080B400AF6B4BD3F851
:103DF00088306A4A43F47003C2F88830684B4CF24A
:103E00002052DA81664B4DF62812DA81644B4FF46A
:103E1000E9721A80634B1B78DBB203F00103002BBD
:103E20000FD0614B9B78DBB203F00803002B2ED040
:103E30005D4B9B78DBB25C4A43F00803DBB29370C6
:103E400025E05A4B03F581531C331B68574943F057
:103E5000005201F581531C331A60554B1B6903F462
:103E60008073002B13D1524B1B6923F47C53504AAF
:103E700043F4407313614E4B1B694D4A43F4807306
:103E800013614B4B1B694A4A23F400731361494B7E
:103E90002A221A70454B03F5825304334FF08A727D
:103EA0001A60424B1B6823F44023404A43F400232A
:103EB00013603E4B03F5805304331B6823F44033F7
:103EC0003A4943F4803201F5805304331A60374B8A
:103ED00003F5815318331B68344943F4007201F52C
:103EE000815318331A60344B9B6C334A23F0807330
:103EF00023F4E0639364314B00221A722F4B5B78FA
:103F0000DBB223F06003DBB22C4A43F02003DBB2C8
:103F100053702B4B80221A70284B00221A73274BA8
:103F2000BA221A7000BF254B9B79DBB203F0100355
:103F3000002BF8D1214BDB78DBB2204A03F01F03C2
:103F4000DBB2D3701D4B13221A711C4B18225A710D
:103F50001A4B5B79DBB2194A43F04003DBB2537171
:103F600000BF164B9B79DBB203F04003002BF8D067
:103F7000124B1B78DBB2114A03F03F03DBB2137024
:103F800000BF0E4B9B79DBB203F00C030C2BF8D176
:103F900000BF00BFBD465DF8047B704700ED00E048
:103FA0000020054000F0074000D0074000700440AA
:103FB00000D0034000E0074000900440004006406D
:103FC0000050064080B483B000AF9C4B1B78DBB23E
:103FD00003F0C003002B40F0DE80984B5B79DBB22E
:103FE00003F04003002B40F0B980944B1B78DBB208
:103FF00003F00403002B4ED1904B1B7BDBB203F08C
:104000000303002B02D0012B03D006E08C4B7B6016
:1040100006E04FF400437B6002E08A4B7B6000BF08
:10402000864B5B78DBB203F03003002B23D0834B4D
:104030001B7BDBB203F00303012B1CD07F4B1B78EF
:10404000DBB203F03803302B05D0382B07D14FF407
:10405000C0637B800EE04FF4A0637B800AE0774B67
:104060001B78DBB2DB0803F00703202202FA03F31C
:104070007B8000BF09E0714B1B78DBB2DB0803F0EB
:104080000703012202FA03F37B807B887A68B2FB84
:10409000F3F37B6002E04FF400437B60674BDB7817
:1040A000DBB203F0E003E02B51D0E02B00F2B08054
:1040B000C02B45D0C02B00F2AB80A02B39D0A02B59
:1040C00000F2A680802B2DD0802B00F2A180602BE7
:1040D00021D0602B00F29C80402B15D0402B00F2A9
:1040E0009780002B02D0202B07D091E07A681346EE
:1040F0009B001344DB017B608BE07A6813469B00D6
:1041000013441B027B6084E07A6813461B019B1AF0
:10411000DB017B607DE07A6813469B0013445B0201
:104120007B6076E07B684FF4377202FB03F37B60C1
:104130006FE07B684FF4B76202FB03F37B6068E0DB
:104140007B6840F6950202FB03F37B6061E07B68CD
:1041500040F6713202FB03F37B605AE0374B1B7968
:10416000DBB29BB203F01F039BB201337B807B88E1
:10417000334AB2FBF3F37B60304B5B79DBB29BB22B
:1041800003F01F039BB218337B807A887B6802FBA5
:1041900003F37B603DE0294B1B78DBB203F0C003E7
:1041A000402B1AD1254B5B78DBB203F00103002BC7
:1041B00003D14FF400437B602BE0204B1B7ADBB232
:1041C0005B0803F00703012202FA03F37B807B887C
:1041D0001D4AB2FBF3F37B601BE0184B1B78DBB28C
:1041E00003F0C003802B23D1144B1B7BDBB203F005
:1041F0000303002B02D0012B03D006E0104B7B60A1
:1042000007E04FF400437B6003E00E4B7B6000E06F
:1042100000BF0E4B03F5825304331B681B0F03F0E2
:104220000F0301337A68B2FBF3F3094A136000E02D
:1042300000BF0C37BD465DF8047B70470040064068
:1042400080F0FA02006CDC0200093D0000700440BE
:104250008804002080B584B000AFF860B9601346D0
:10426000FB71BB681F2B05D90D4B0E4AFF210E4871
:1042700003F094FDFB68BA6853F8223023F0807392
:1042800023F4E063FA79120202F4E06243EA0201E5
:10429000FB68BA6843F8221000BF1037BD4680BDE6
:1042A000D0A9000050AA0000DCA9000080B483B0AF
:1042B00000AF78600B46FB707B68FA781A7000BF1D
:1042C0000C37BD465DF8047B7047000080B584B0B4
:1042D00000AF3B4600221A605A609A60DA60064BD3
:1042E0003B6002237B723B461946002002F0DEF859
:1042F00000BF1037BD4680BD80F0FA0280B584B0A3
:1043000000AF074A3B1D07CA83E807003B1D19465B
:10431000002002F017F900BF1037BD4680BD00BF76
:1043200014AA000080B500AF2A210848FFF7BEFF9D
:10433000002212210648FFF78DFFFFF7C7FFFFF7A6
:10434000DDFF044802F054F900BF80BD00E00740E3
:104350000090044038AA000080B582B000AF01F0A0
:10436000E1FF0023FB7106E0FB79184602F0B8F983
:10437000FB790133FB71FB79042BF5D9FFF7D2FFF1
:1043800000BF0837BD4680BD80B500AF002002F0F9
:10439000E9F900BF80BD80B500AF012002F0E2F96D
:1043A00000BF80BD80B500AF022002F0DBF900BF86
:1043B00080BD80B500AF032002F0D4F900BF80BDFE
:1043C00080B500AF042002F0CDF900BF80BD80B5FC
:1043D00000AF052002F0C6F900BF80BD80B500AF78
:1043E000062002F0BFF900BF80BD80B500AF0720F6
:1043F00002F0B8F900BF80BD80B500AF082002F020
:10440000B1F900BF80BD80B500AF092002F0AAF964
:1044100000BF80BD80B500AF0A2002F0A3F900BF45
:1044200080BD80B500AF0B2002F09CF900BF80BDBD
:1044300080B500AF0C2002F095F900BF80BD80B5BB
:1044400000AF0D2002F08EF900BF80BD80B500AF37
:104450000E2002F087F900BF80BD80B500AF0F20AD
:1044600002F080F900BF80BD80B500AF002002F0EF
:1044700091F900BF80BD80B500AF002003F054F873
:1044800000BF80BD80B500AF012003F04DF800BF34
:1044900080BD80B500AF022003F046F800BF80BDAC
:1044A00080B500AF032003F03FF800BF80BD80B5AA
:1044B00000AF042003F038F800BF80BD80B500AF26
:1044C000052003F031F800BF80BD80B400AFFEE7E7
:1044D00080B400AFFEE780B400AFFEE780B400AF69
:1044E000FEE780B400AFFEE780B400AFFEE780B423
:1044F00000AFFEE780B400AFFEE780B400AFFEE798
:1045000080B400AFFEE780B400AFFEE780B400AF38
:10451000FEE780B400AFFEE780B400AFFEE780B4F2
:1045200000AFFEE780B400AFFEE780B400AFFEE767
:1045300080B400AFFEE780B400AFFEE780B400AF08
:10454000FEE780B400AFFEE780B400AFFEE780B4C2
:1045500000AFFEE780B400AFFEE780B400AFFEE737
:1045600080B400AFFEE780B400AFFEE780B400AFD8
:10457000FEE780B400AFFEE780B400AFFEE780B492
:1045800000AFFEE780B400AFFEE780B400AFFEE707
:1045900080B400AFFEE780B400AFFEE780B400AFA8
:1045A000FEE780B400AFFEE780B400AFFEE780B462
:1045B00000AFFEE780B400AFFEE780B400AFFEE7D7
:1045C00080B400AFFEE780B400AFFEE780B400AF78
:1045D000FEE780B400AFFEE780B400AFFEE780B432
:1045E00000AFFEE780B400AFFEE780B400AFFEE7A7
:1045F00080B400AFFEE780B400AFFEE780B400AF48
:10460000FEE780B400AFFEE780B400AFFEE780B401
:1046100000AFFEE780B400AFFEE780B400AFFEE776
:1046200080B400AFFEE780B400AFFEE780B400AF17
:10463000FEE7000080B584B000AF7860114B1B68C6
:10464000002B02D10F4B104A1A600E4B1B68FB6007
:104650000C4B1A687B6813440C4A934207D903F049
:10466000C1FB03460C221A604FF0FF3306E0054BF6
:104670001A687B681344034A1360FB6818461037B6
:10468000BD4680BDEC0F00200000FF1F0000002091
:1046900080B582B000AF7860034800F069F900BFD0
:1046A0000837BD4680BD00BF680E002098B500AF3A
:1046B000094B0A4A1A600A4B0A4A1C1D13460FCBC3
:1046C00084E80F0000F0B9F80346054A1360064B72
:1046D000034A1A6000BF98BD680E0020700E0020CB
:1046E00014100020A4AA0000600E002080B586B03F
:1046F00002AF87ED010A38600223FB60FFF7D6FFA7
:10470000164800F025F90346BB60154800F020F973
:104710000346BB60002300930023FA681149124846
:1047200000F062F80346BB600023104A01211048E4
:1047300000F09BF80346BB60D7ED017A9FED0D7A40
:1047400067EE877AFCEEE77A17EE901A084800F0D9
:10475000B3F800BF1037BD4680BD00BF680E002013
:10476000600E002025290000700E002091460000F8
:10477000F00F002000007A4480B400AFFEE700BFD5
:1047800080B483B000AF78607B68013B032B0BD80B
:1047900001A252F823F000BFA9470000A94700007A
:1047A000A9470000A947000000BFFEE7704700BF0F
:1047B000704700BF0020002104460D46084803F062
:1047C0000BFB03F04FFB2046294600F0B1F90548EA
:1047D000002100F069FA00F0BFF903F009FB0000C6
:1047E000117E0000A4AA000080B586B000AFF8607A
:1047F000B9607A603B60FB68BA685A60FB687A68A7
:104800009A60FB680122DA603A68FB681A61FB680B
:104810000433396A184600F047FA0246FB681A600A
:10482000FB681B68002B14BF01230023DBB27B61F4
:104830007B6918461837BD4680BD80B500AF00F0D3
:1048400085FA0346184680BD80B584B000AF786015
:1048500000F07CFA0346FB60F86800F083FA034638
:10486000BB6000BF1037BD4680BD80B586B000AFCD
:10487000F8607A603B600B46FB72FB6803F10C0248
:10488000FB689A60FB687A685A60FB680433F97ABF
:104890003A68184600F070FB0246FB681A60FB6835
:1048A0001B68002B14BF01230023DBB27B617B69F3
:1048B00018461837BD4680BD80B584B000AF78601B
:1048C00039607B681B683968184600F089FB03462D
:1048D000FB60FB6818461037BD4680BD84B080B5CC
:1048E00082B000AF07F1100C8CE80F003B69796AC9
:1048F000184600F04BFC03467B607B68184608377F
:10490000BD46BDE8804004B0704784B080B500AFBC
:1049100007F1080C8CE80F00BB68F969184600F035
:1049200055FC03461846BD46BDE8804004B07047BC
:1049300080B582B000AF786039607B684FF0FF329D
:104940003968184600F050FC78680837BD4680BDCD
:1049500080B485B000AF78607B6801225A60012383
:10496000FB60FB6818461437BD465DF8047B704752
:1049700080B584B002AF78607B681B687A68526843
:1049800001921A6900920FCBFFF7A8FF0346184661
:104990000837BD4680BD80B584B002AF786039600D
:1049A0003B681B683A68526801921A6900920FCB03
:1049B000FFF7ABFF3B685A687B6811461846FFF764
:1049C000B7FF78680837BD4680BD000000B5DFF846
:1049D0000CC000DFDFF808C000DFFEE7494C000034
:1049E000614C00002DE9F041344C237853B1344B35
:1049F0001B68FF229A70334A002001231070237035
:104A0000BDE8F081304B3148196800F00BFD0028FB
:104A10004CD101F079FB2A4B21781B68FF229A7058
:104A20000029E8D12A4A1368002B44D0556845B1C3
:104A30002A78002A38D1191D890089B2284600F049
:104A4000B5FD244B244A1E68156096B35D68EA1CC8
:104A5000062A2ED8DF688FB9291D30463B463A46D4
:104A600001F010FA054620B31C4B1D4A681E53F88E
:104A70002050AB6A5A631B4B1D60BCE73946134894
:104A800000F0DEFC8046A0B1291D41EA0721304636
:104A90000023424601F0F6F905460028E4D14146DC
:104AA0000A4800F0F1FCE6E70D46CAE78520BDE8BC
:104AB000F0810025DFE71D46C3E700BFA83F0020C7
:104AC000EC3F0020A93F002080AA0000E032002037
:104AD00098AA000088AA0000D43E0020A43E00202E
:104AE000CD490000B03E002038B50F4C207808B109
:104AF000002038BD0D4D2B6893F8241001F072F999
:104B00002B68DA78FF2A03D19A6A203282F3098867
:104B10006A682AB101F066FB01232370002038BDCA
:104B2000C5E90023F6E700BFA93F0020EC3F0020C5
:104B300010B5EFF305845CB9EFF31484E40703D5F3
:104B4000DFF810C000DF10BDBDE81040FFF74ABF1E
:104B5000822010BDE549000010B588B0EFF3058450
:104B60001CBBEFF3148404F00304022C24D0032CA8
:104B700014D0012C16D008AC84F30988114C247889
:104B8000E40715D4032484F31488BFF34F8FBFF3D5
:104B90006F8FDFF834C000DF08B010BD094C2478F7
:104BA000E407F6D5FF2008B010BD822008B010BD84
:104BB000022484F31488E8E7024C2478E407E8D45C
:104BC000E0E700BF70AA0000E94A000098B3F8B51A
:104BD000066876B34768FB1C062B2AD8C2680446D1
:104BE0000D46BAB11146154800F02AFC064600B33E
:104BF0006268E1682068043242EA01212B463246AD
:104C000001F040F9044660B931460C4800F03CFC24
:104C10002046F8BD0B463046391D01F033F90446F5
:104C200038B1601E064B074A53F82000836A5A6366
:104C3000F8BD0020F8BD0020704700BFE032002022
:104C4000A43E0020CD49000008B501F0C3F818B11A
:104C50000138024B53F8200008BD00BFA43E0020DD
:104C6000D0B1820718D138B50478BCB9C28C0346DC
:104C7000C0785AB1DD6A01F069F9FF2810D04DB152
:104C80002946084800F000FC204638BD01F05EF9D6
:104C9000FF2805D0002038BD80207047802038BD17
:104CA000812038BDE0320020F8B5EFF305848CB9DF
:104CB000EFF31484E40702D41F4C247864B1DFF8C6
:104CC00088C000DFF8BD0B463046391D01F0DAF828
:104CD000044640BB0020F8BD0028FBD00668002E2B
:104CE000F8D04768FB1C062BF4D8C2680D46044672
:104CF000002AE8D01146114800F0A2FB0646002821
:104D0000E8D06268E1682068043242EA01212B465B
:104D1000324601F0B7F8044628B93146074800F09A
:104D2000B3FB2046F8BD601E054B064A53F8200031
:104D3000836A5A63F8BD00BFA93F0020E03200201B
:104D4000A43E0020CD490000CD4B000010B5EFF38C
:104D500005841CB9DFF808C000DF10BD002010BDBD
:104D6000494C000010B5EFF305841CB9DFF808C00A
:104D700000DF10BD822010BD614C0000A0B10368AF
:104D80009BB143688BB101290ED830B40A4C24681A
:104D90006CB11C795CB9012559711D711C60C3E9A6
:104DA000042030BC18467047002318467047002383
:104DB000184630BC704700BFB03E0020820727D1A4
:104DC00030B3002951D0F8B5314B1A68002312F1E5
:104DD000FF3643F1FF3704464FF47A70E0FB01677A
:104DE00030463946FCF7FEF82379012B12D0022B0E
:104DF0000CD1284D2A684AB1944238D0114602E0BD
:104E00009C4228D019460B68002BF9D18120F8BDAF
:104E1000802070471F4DE06002232A682371002A1A
:104E20002AD09668B04206D22CE09D688D420BD8FD
:104E300008462E461A461368811B002BF5D12360C5
:104E4000A16014600020F8BDA16099682360081A71
:104E500006449E60F5E723680B602368002BE0D0D2
:104E60009968A66831449960D9E78620704723681D
:104E70002B600BB11A46F3E70023A06023602C607F
:104E80000020F8BDA06093682260181A9060F6E7D1
:104E900074AA0000AC3F0020830704D130B1D0E9F0
:104EA0000413186870470020014670470146704798
:104EB0002DE9F8432E4F3C68002C37D0A368013B06
:104EC000A360002B32D1DFF8AC902668D9F80050EF
:104ED0003E6025B195F80080B8F1010F17D004208D
:104EE000FFF74EFCA2609A682360551B65449D60E5
:104EF0000460DEB1B368CBB9D9F8005033683B60C9
:104F0000002DECD02A78012AE9D134461E462846E5
:104F100000F0ACFB0028E2D02846214600F0AAFBB6
:104F20006379012B04D084F80480E2E7BDE8F883BC
:104F30003868E56890B1D0F808C0654506D211E040
:104F400099689142CED815468C4618460368A5EB61
:104F50000C02002BF4D12360A260C9E72060A56099
:104F60003C60C6E7A560836820605D1B8560F7E74D
:104F7000AC3F0020D43E002030B5EFF305840CBBDD
:104F8000EFF31484E40702D4124C24782CB1DFF838
:104F90004CC000DF0346184630BDC0B10368002B8B
:104FA000F9D04368002BF6D001290ED80A4D2D68A0
:104FB00045B11D794DB901241D605971C3E9042023
:104FC0001C71E8E70023184630BD2346E3E703469B
:104FD000E1E700BFA93F0020B03E00207D4D00006A
:104FE00010B5EFF305841CB9DFF808C000DF10BD71
:104FF000822010BDBD4D000008B50B4DEFF30580BC
:105000004FF0FF310028F9D12868DFF820C000DF19
:105010001028F3D10846DFF818C000DF0446002846
:10502000ECD00846A047E9E7D43E00201552000026
:10503000994E000010B570B183070CD1037853B9B5
:105040000B0C1B043BB9034688B21C8BD97800F0CB
:1050500029FD204610BD4FF00044204610BD00BF82
:1050600010B570B183070CD1037853B90B0C1B0436
:105070003BB9034688B21C8BD97800F03FFD20462F
:1050800010BD4FF00044204610BD00BF2DE9F04197
:105090004FEA10484FEA0848B8F1000F48D10D46D2
:1050A000044640B380B291B14A1C5DD0344B994262
:1050B00063D8344B1A684FF6FE714FF47A73561E5C
:1050C00003FB0563B3FBF2F38B4200D899B20122D4
:1050D00000F0C6FC022844D0002D14BF4024002458
:1050E000002001460E460F464546204629463246D8
:1050F0003B46BDE8F08159B34B1C38D0204B994258
:1051000038D8204B1A684FF6FE714FF47A73501E50
:1051100003FB0505B5FBF2F58D4200D8A9B20022CC
:105120004FF6FF7000F09CFC02280BD04024D7E71C
:10513000002586242E462F462046294632463B46E9
:10514000BDE8F081104B1B680824B3F81A80C7E74C
:1051500042464FF6FF7000F083FC0228F2D044462E
:10516000BEE7A0460824BBE74FF6FF71AFE74FF656
:10517000FF71D4E74FF6FE71D1E74FF6FE71A6E757
:1051800000093D0074AA0000EC3F002070B5EFF369
:1051900005852DB9DFF830C000DF0446204670BD1C
:1051A000044668B183070BD103784BB90B0C1B0481
:1051B00033B988B2E178248B00F0ACFC204670BD96
:1051C0004FF00044204670BD3550000010B5EFF39D
:1051D00005841CB9DFF80CC000DF10BD4FF00040A3
:1051E00010BD00006150000070B50446EFF3058566
:1051F0004DB908461146DFF818C000DFC4E90001C8
:10520000A260204670BD82230360204670BD00006E
:105210008D500000F0B5034685B000283AD00278E2
:10522000012A2AD10C4600293ED04A1C49D0264AE0
:1052300091422CD8254A11684FF47A75481E4FF6D2
:10524000FE7205FB0404B4FBF1F4944200D8A2B250
:10525000184602A900F0B6F9012830D00020024615
:1052600003461020029904460D4616461F46204666
:10527000294632463B4605B0F0BD002580242E4627
:105280002F462046294632463B4605B0F0BD4FF634
:10529000FE72DDE70546064607468024204629467D
:1052A00032463B4605B0F0BD0A4602A900F08AF935
:1052B0000128D3D10020024603462046D2E74024ED
:1052C000F8E74FF6FF72C3E700093D0074AA00003B
:1052D000274B2DE9F047C58CD3F80090C66AAD087E
:1052E00008BFC9F38D0506EB8504630748BF043C7E
:1052F0008046A4F140074FF080738A4644F8081CAA
:1053000044F8043C38463822002103F089F8D8F8E4
:105310001C3044F8203C19F0805F3B46C8F82870E8
:10532000C8F830A01FD0112D1DD9103D6D08012DDA
:1053300012D06FF03702A2EBC50214444FF0CC320A
:1053400043F8042C43F8082DA342F9D1C5EB457569
:1053500007EBC50303F108073B1F9E423CBF4FF01C
:10536000CC3347F8043C034B3360BDE8F08700BF03
:1053700068AA0000A52E5AE290F82520836A12B18F
:1053800060331960704720331960704710B490F88B
:105390002540836A2CB16033C3E900125DF8044BE9
:1053A00070472033C3E900125DF8044B704700BF1B
:1053B000084B1B68DA0107D5074B1B68DB0703D5D1
:1053C000064B1B68002B00DB7047054B01221A704F
:1053D000704700BFFCED00E0800E00E0000E00E032
:1053E000B03F002010B4094C2368002BFCD0036BA5
:1053F000064A23601368002BFCD0C3785DF8044B89
:1054000043EA01239BB21380704700BF7C0000E099
:10541000034A1368002BFCD0C0B21070704700BF65
:105420007C0000E0034648B1072907D9043900226F
:10543000084418605A5010465A607047012070475F
:10544000F0B1F1B10B3170B4036821F0030603E051
:105450001968184649B10B46446802199D1AAE42B4
:10546000F6D82CB9466000F10801084670BC7047B8
:1054700002F10801C2E90036026070BC08467047BC
:1054800001460846704700BFC0B1B9B1083988422B
:105490001DD010B404689CB1A1421CD0236823B96C
:1054A0000EE01A681C465AB113469942F9D15CB114
:1054B0001B68236000205DF8044B70470120704793
:1054C00001205DF8044B704700205860F3E7034665
:1054D00000205860704723460446E9E7002A30B4AC
:1054E0001FDB033222F003020C24BAB113198B42E2
:1054F00014D8044401448D1AA3189D42C0E9004108
:10550000826015D3002100E003469818854263505D
:105510001144F9D20020186030BC7047012030BC23
:10552000704722F00042073222F007021024DCE725
:105530002346EFE7EFF3108372B6026803F001032E
:105540000AB11168016003B962B61046704700BF26
:1055500081420DD343688B420AD9EFF3108372B6B0
:1055600002680A60016013F0010003D162B670475F
:105570000120704700207047426882B110B500F0EA
:105580001DF9044600F032FA012161702046FFF750
:10559000F3FE21460448BDE8104000F0E7B8428819
:1055A00001324280704700BFB83F0020103900230D
:1055B00089080122C18102808370C0E9013383819F
:1055C000704700BF38B5838904467BB915465AB188
:1055D000254A4368116823B300F0C8F8284608211B
:1055E00000F0D0FB012038BD012038BD4389C289BD
:1055F000181D01339BB254F8200008609A42638161
:1056000004BF00236381636813B16378022B0ED05B
:10561000EFF3108372B6A389013BA38162B6002029
:1056200038BD01224160C1E901304270D6E7204611
:1056300000F0C4F800210546FFF79EFE2389E289A9
:10564000E869191D01339BB29A4244F82100238175
:1056500004BF00232381284600F0C8F9284600F043
:1056600055FB002038BD00BFEC3F0020C289808977
:10567000101A704708B500F0D1F9BDE8084000F0F5
:1056800083BA00BF426870B503464AB14578022D1F
:105690000E4604463DD0032D1AD0012D30D070BDEA
:1056A0008489C08984425AD21889043043F8201072
:1056B000EFF3108172B699890131998162B6198927
:1056C000D889013189B288421981E8D11A8170BD27
:1056D0000846FFF72FFF05460028E0D0204600F0DF
:1056E0006DF829460446FFF747FE01236370204604
:1056F00000F07CF921461C48BDE8704000F036B847
:1057000000F05CF8044632461021FFF73FFE65705A
:10571000EDE700F053F800210546FFF72DFE238941
:10572000EA69043344F82320EFF3108372B6A389A7
:105730000133A38162B62389E28901339BB29A4285
:10574000238104BF00232381012328466B7000F0CE
:105750004DF929460448BDE8704000F007B8032021
:10576000BDE87040FFF70CB8B83F002030B40578B2
:1057700042688C78013DEDB2EAB19378A34204D23D
:105780000FE0987884420ED81A465368002BF8D15F
:105790000023022D4B60516000D900228A6030BC8A
:1057A000704713460246022D4B605160F5D8996050
:1057B00030BC8A6070470246EAE700BF027843685F
:1057C000013A59684160022A07D811B10022886065
:1057D0005A6000229A601846704700225A601846A4
:1057E000704700BF034B5A684260002258608260D5
:1057F000704700BFB83F0020816830B400292FD027
:105800000B780A461BB992681378002BFBD04468CA
:105810004C604568546805B1A960013B8578D9B2F0
:10582000002C3AD0A378AB4204D20FE09A7895428C
:105830000ED81C466368002BF8D100230229436070
:1058400060600AD90023836030BC70472346144649
:10585000022943606060F5D89860846030BC70476E
:105860004378012BF0D10E494C68A0420DD04CB1C9
:10587000626890420FD02AB15368984206D01A4607
:10588000002AF9D10B78064AC7E70A4645685560F1
:105890000B78034AC1E72246F8E71446CDE700BF7C
:1058A000B83F002070B4164EF36823B3B58AA942FE
:1058B0002A4602D821E0A4B123469D8ADC682A4406
:1058C0009142F8D895B2C460D860C268036102B151
:1058D00010616A1A82829A8A551B2944998270BC87
:1058E0007047891A89B20022C26070BCD860036117
:1058F0009982828270473346F5E71C463346E2E7D9
:10590000D03F00202DE9F0432A4DEB68002B4AD010
:10591000A88A013880B2A882002844D1264F274A9D
:105920003E78B2F800E0013EF6B2B8464FF0010C06
:105930009A6832B15968516011B159688A605860EB
:1059400098607A689C78002A2FD09178A14205D27D
:105950001EE091F802904C451CD80A465168002977
:10596000F7D1022E5860536000D900225C789A600B
:10597000042C998A02D1DA8A72449A82DA6883F80E
:1059800001C06AB11561C3E9030081B91346CFE7CD
:1059900011464246022E59605360E6D88B60E5E717
:1059A000A982EA601A61BDE8F0834246D9E7A9827C
:1059B000EA60F8E7D03F0020B83F0020B43F002065
:1059C00083682BB142685A60426842B19360704765
:1059D000054B5A68904203D01346002AF9D170470C
:1059E00042685A60704700BFB83F002003699BB10E
:1059F000C268DA6062B1998A10B4848A21449982BB
:105A0000002413610023C46003615DF8044B7047F8
:105A10009A82002303617047704700BF30B40F4B78
:105A2000DC78EFF3108272B69A78944208D9551C4C
:105A30001A789D70551CAC4214BFEDB200251D7044
:105A400062B6DC78944205D903EBC203C3E90101D5
:105A500030BC7047022030BCFEF792BE203E0020D2
:105A600038B50F4B1C68238B00EA030552B1A842DE
:105A70000BD006250A4660832946104600F082F9BD
:105A8000012038BD35B90525F4E723EA000020835D
:105A9000022038BD23EA000020836583022038BD40
:105AA000EC3F00200139144B10B553F8214044B1AC
:105AB000218B6378628B0843062B208318D0052B3B
:105AC00000D010BD10EA0203FBD0638320EA02007D
:105AD00020832046FFF78AFF012320466370628BF4
:105AE0000821FFF753FC2046BDE8104000F00EB936
:105AF00032EA0003EAD010BDA43E00200139044B75
:105B000053F821301BB11A8B22EA00021A83704726
:105B1000A43E002008B50139064B53F821303BB1B3
:105B200001461846FFF77AFFBDE8084000F02CB8A0
:105B300008BD00BFA43E002038B5038B4278458BDA
:105B40001943062A018319D0052A00D038BD11EA6D
:105B50000503FBD0438321EA050104460183FFF7D7
:105B600045FF012320466370628B0821FFF70EFC7E
:105B700021460448BDE83840FFF7F8BD35EA010387
:105B8000E9D038BDB83F0020054B1A7822B9054B43
:105B90004FF080521A60704701229A70704700BF20
:105BA0005C0E002004ED00E038B5234B234C186850
:105BB00001234370FFF716FE6378A2781D46C2B139
:105BC00004EBC5014B681A78184662B3012A2ED03F
:105BD000FFF7D2FCE3780135AB4212D0EFF310832C
:105BE00072B6A378013BA37062B6A378002BE7D10D
:105BF000EBB213486370FFF7E1FDBDE8384000F0F9
:105C000073B8EFF3108372B6A378013BA37062B64A
:105C1000A578002DECD0002504EBC5014B681A785F
:105C20001846002AD2D10989FFF786FFD2E7896892
:105C3000FFF728FDCEE700BFEC3F0020203E00200C
:105C4000B83F00200A4A0B490B480C4B10B41468AB
:105C50000C600B4A002407210460196013685DF88A
:105C6000044B43F07F434FF0FF301360704700BF99
:105C70006CAA000014E000E018E000E010E000E092
:105C800020ED00E0704700BF08B50B4B18680123FA
:105C90004370FFF7A7FDFEF78BFD084A1368013339
:105CA0001360FFF72FFEFFF703F90548FFF786FDA6
:105CB000BDE8084000F018B8EC3F0020B43F0020D9
:105CC000B83F0020064B1B68D3E90A329A4203D83A
:105CD0001268044B9A4202D00120FEF751BD704772
:105CE000EC3F0020A52E5AE2064A074B1278586076
:105CF000022141702AB11B68984202D0C078FFF798
:105D000087BB7047B03F0020EC3F002038B500B3A0
:105D1000194D82780446286883789A4211D9FFF792
:105D200061FD164A2B6812780120022158706C60C0
