:1000000000000020FD040000675D00006D5D000041
:10001000735D0000795D00007F5D0000000000005E
:100020000000000000000000000000006D0500005E
:10003000855D00000000000013060000730600004C
:10004000255C0000335C0000415C00004F5C000058
:100050005D5C00006B5C0000795C0000875C000068
:10006000955C0000A35C0000B15C0000BF5C000078
:10007000CD5C0000DB5C0000E95C0000F75C000088
:10008000055D00008B5D0000915D0000975D000044
:100090009D5D0000A35D0000A95D0000AF5D000054
:1000A000B55D0000BB5D0000C15D0000C75D0000E4
:1000B000CD5D0000D35D0000D95D0000135D000040
:1000C000DF5D0000215D0000E55D00002F5D0000A8
:1000D000EB5D00003D5D0000F15D0000F75D00009C
:1000E000FD5D0000035E0000095E00000F5E000081
:1000F000155E00001B5E0000215E0000275E000010
:100100000D0500000D0500000D0500000D050000A7
:100110002D5E0000335E0000395E00003F5E00008F
:10012000455E00004B5E0000515E0000575E00001F
:100130005D5E0000635E0000695E00006F5E0000AF
:10014000755E00007B5E00004B5D0000815E00007C
:10015000595D0000875E00008D5E0000935E000028
:10016000995E00009F5E0000A55E0000AB5E00008F
:10017000B15E0000B75E0000BD5E0000C35E00001F
:10018000C95E00000D0500000D0500000D05000012
:100190000D0500000D0500000D0500000D05000017
:1001A0000D0500000D0500000D0500000D05000007
:1001B0000D0500000D0500000D0500000D050000F7
:1001C0000D0500000D0500000D0500000D050000E7
:1003F0000D0500000D0500000D050000FFFFFFFFCB
:10040000FFFFFFFFFFFFFFFFFFFFFFFFFEFFFFFFFD
:1004400010B5054C237833B9044B13B10448AFF30E
:1004500000800123237010BD9810002000000000D0
:1004600048E5000008B5034B1BB103490348AFF34F
:10047000008008BD000000009C10002048E500003E
:10048000A3F5803A704700BF174B002B08BF134BF2
:100490009D46FFF7F5FF00218B460F461348144A8F
:1004A000121A0AF01DFC0E4B002B00D098470D4B82
:1004B000002B00D098470020002104000D000D48BB
:1004C000002802D00C480AF0E7F80AF02BF92000C7
:1004D000290003F09FF80AF0EBF800BF00000800C5
:1004E00000000000056100000000002098100020BE
:1004F000445B002099A60000D1A6000072B604F06B
:10050000A9FF04F03FFF62B6FFF7BEFFFFF7FEBF93
:1005100080F309887047EFF309807047684680F3DD
:1005200009885A480078C00714BF0220032080F3CE
:1005300014887047DFF858C1EFF305831B0618BF16
:100540006047EFF31483DB0708BF604700DF7047A5
:10055000DFF840C1EFF305831B0618BF6047EFF3D8
:100560001483DB0708BF604700DF7047EFF30980A3
:10057000816911F8021CE1BB90E80F1010B5E0474B
:10058000BDE81040EFF3098C8CE80700424B93E87C
:100590000600914208BF704741B91EF0100F16D1F6
:1005A0003E49086820F00100086010E01EF0100FBE
:1005B00006BF2CED108A0120002081F825002CE9CF
:1005C000F00FC1F828C00CB407F034F90CBC1A6065
:1005D000D2F828C0BCE8F00F92F8250000280EBF22
:1005E0006FF0020E6FF0120EBCEC108A8CF30988CB
:1005F000704710B52A4A1268914209D8294C54F81C
:10060000214090E80F10A047EFF3098C8CE80F0011
:1006100010BD10B507F080F8BDE810401E4B93E800
:100620000600914208BF7047EFF3098C1EF0100FCF
:1006300006BF2CED108A0120002081F825002CE94E
:10064000F00FC1F828C00CB407F0F4F80CBC1A6025
:10065000D2F828C0BCE8F00F92F8250000280EBFA1
:100660006FF0020E6FF0120EBCEC108A8CF309884A
:10067000704710B507F0C0F8FFF7CEBF10B507F010
:10068000B9F807F0B9F8FFF7C7BF0000F8D40000C9
:10069000A5700000C1700000E05A002034EF00E0B7
:1006A00000000000FCFFFFFF81F0004102E000BFFE
:1006B00083F0004330B54FEA41044FEA430594EA22
:1006C000050F08BF90EA020F1FBF54EA000C55EA5D
:1006D000020C7FEA645C7FEA655C00F0E2804FEA2E
:1006E0005454D4EB5555B8BF6D420CDD2C4480EA10
:1006F000020281EA030382EA000083EA010180EA40
:10070000020281EA0303362D88BF30BD11F0004F8D
:100710004FEA01314FF4801C4CEA113102D04042C3
:1007200061EB410113F0004F4FEA03334CEA1333FE
:1007300002D0524263EB430394EA050F00F0A78016
:10074000A4F10104D5F1200E0DDB02FA0EFC22FA11
:1007500005F2801841F1000103FA0EF2801843FA05
:1007600005F359410EE0A5F120050EF1200E012AF6
:1007700003FA0EFC28BF4CF0020C43FA05F3C01834
:1007800051EBE37101F0004507D54FF0000EDCF1AD
:10079000000C7EEB00006EEB0101B1F5801F1BD356
:1007A000B1F5001F0CD349085FEA30004FEA3C0C5A
:1007B00004F101044FEA445212F5800F80F09A8050
:1007C000BCF1004F08BF5FEA500C50F1000041EB54
:1007D000045141EA050130BD5FEA4C0C404141EB58
:1007E0000101013C28BFB1F5801FE9D291F0000F53
:1007F00004BF01460020B1FA81F308BF2033A3F102
:100800000B03B3F120020CDA0C3208DD02F1140CF8
:10081000C2F10C0201FA0CF021FA02F10CE002F133
:100820001402D8BFC2F1200C01FA02F120FA0CFC2C
:10083000DCBF41EA0C019040E41AA2BF01EB045175
:10084000294330BD6FEA04041F3C1CDA0C340EDC73
:1008500004F11404C4F1200220FA04F001FA02F3B6
:1008600040EA030021FA04F345EA030130BDC4F174
:100870000C04C4F1200220FA02F001FA04F340EA69
:100880000300294630BD21FA04F0294630BD94F01A
:10089000000F83F4801306BF81F480110134013D01
:1008A0004EE77FEA645C18BF7FEA655C29D094EA72
:1008B000050F08BF90EA020F05D054EA000C04BFF0
:1008C0001946104630BD91EA030F1EBF00210020DB
:1008D00030BD5FEA545C05D14000494128BF41F07A
:1008E000004130BD14F580043CBF01F5801130BDDE
:1008F00001F0004545F0FE4141F470014FF0000069
:1009000030BD7FEA645C1ABF194610467FEA655C19
:100910001CBF0B46024650EA013406BF52EA0335BB
:1009200091EA030F41F4002130BD00BF90F0000FA9
:1009300004BF0021704730B54FF4806404F13204E5
:100940004FF000054FF0000150E700BF90F0000F9E
:1009500004BF0021704730B54FF4806404F13204C5
:1009600010F0004548BF40424FF000013EE700BF95
:1009700042004FEAE2014FEA31014FEA02701FBF25
:1009800012F07F4393F07F4F81F06051704732F057
:100990007F4208BF704793F07F4F04BF41F40021AE
:1009A000704730B54FF4607401F0004521F000410C
:1009B0001CE700BF50EA010208BF704730B54FF096
:1009C00000050AE050EA010208BF704730B511F097
:1009D000004502D5404261EB41014FF4806404F1CF
:1009E00032045FEA915C3FF4D8AE4FF003025FEA55
:1009F000DC0C18BF03325FEADC0C18BF033202EBD9
:100A0000DC02C2F1200300FA03FC20FA02F001FA32
:100A100003FE40EA0E0021FA02F11444BDE600BFD5
:100A200070B54FF0FF0C4CF4E06C1CEA11541DBF84
:100A30001CEA135594EA0C0F95EA0C0F00F0DEF84F
:100A40002C4481EA030621EA4C5123EA4C5350EA34
:100A5000013518BF52EA033541F4801143F4801385
:100A600038D0A0FB02CE4FF00005E1FB02E506F016
:100A70000042E0FB03E54FF00006E1FB03569CF06B
:100A8000000F18BF4EF0010EA4F1FF04B6F5007F71
:100A900064F5407404D25FEA4E0E6D4146EB0606E3
:100AA00042EAC62141EA55514FEAC52040EA5E506C
:100AB0004FEACE2EB4F1FD0C88BFBCF5E06F1ED816
:100AC000BEF1004F08BF5FEA500E50F1000041EB4D
:100AD000045170BD06F0004646EA010140EA0200FA
:100AE00081EA0301B4EB5C04C2BFD4EB0C0541EA1C
:100AF000045170BD41F480114FF0000E013C00F331
:100B0000AB8014F1360FDEBF002001F0004170BD54
:100B1000C4F10004203C35DA0C341BDC04F114046D
:100B2000C4F1200500FA05F320FA04F001FA05F2F9
:100B300040EA020001F0004221F0004110EBD370C6
:100B400021FA04F642EB06015EEA430E08BF20EAF2
:100B5000D37070BDC4F10C04C4F1200500FA04F395
:100B600020FA05F001FA04F240EA020001F0004127
:100B700010EBD37041F100015EEA430E08BF20EA9A
:100B8000D37070BDC4F1200500FA05F24EEA020EE2
:100B900020FA04F301FA05F243EA020321FA04F011
:100BA00001F0004121FA04F220EA020000EBD370C8
:100BB0005EEA430E08BF20EAD37070BD94F0000FC8
:100BC0000FD101F00046400041EB010111F4801FFC
:100BD00008BF013CF7D041EA060195F0000F18BFAD
:100BE000704703F00046520043EB030313F4801FE9
:100BF00008BF013DF7D043EA0603704794EA0C0FA3
:100C00000CEA135518BF95EA0C0F0CD050EA4106B8
:100C100018BF52EA4306D1D181EA030101F0004135
:100C20004FF0000070BD50EA410606BF104619465D
:100C300052EA430619D094EA0C0F02D150EA013669
:100C400013D195EA0C0F05D152EA03361CBF1046AA
:100C500019460AD181EA030101F0004141F0FE4149
:100C600041F470014FF0000070BD41F0FE4141F4CD
:100C7000780170BD70B54FF0FF0C4CF4E06C1CEACD
:100C800011541DBF1CEA135594EA0C0F95EA0C0F82
:100C900000F0A7F8A4EB050481EA030E52EA03353D
:100CA0004FEA013100F088804FEA03334FF080555E
:100CB00045EA131343EA12634FEA022245EA11158B
:100CC00045EA10654FEA00260EF000419D4208BF3C
:100CD000964244F1FD0404F5407402D25B084FEAE9
:100CE0003202B61A65EB03055B084FEA32024FF495
:100CF00080104FF4002CB6EB020E75EB030E22BFF2
:100D0000B61A754640EA0C005B084FEA3202B6EBB1
:100D1000020E75EB030E22BFB61A754640EA5C0060
:100D20005B084FEA3202B6EB020E75EB030E22BFF0
:100D3000B61A754640EA9C005B084FEA3202B6EBF1
:100D4000020E75EB030E22BFB61A754640EADC00B0
:100D500055EA060E18D04FEA051545EA16754FEA12
:100D600006164FEAC30343EA52734FEAC2025FEA30
:100D70001C1CC0D111F4801F0BD141EA00014FF0BF
:100D800000004FF0004CB6E711F4801F04BF014390
:100D90000020B4F1FD0C88BFBCF5E06F3FF6AFAEAC
:100DA000B5EB030C04BFB6EB020C5FEA500C50F13C
:100DB000000041EB045170BD0EF0004E4EEA1131BF
:100DC00014EB5C04C2BFD4EB0C0541EA045170BDC6
:100DD00041F480114FF0000E013C90E645EA060E0A
:100DE0008DE60CEA135594EA0C0F08BF95EA0C0F38
:100DF0003FF43BAF94EA0C0F0AD150EA01347FF480
:100E000034AF95EA0C0F7FF425AF104619462CE756
:100E100095EA0C0F06D152EA03353FF4FDAE1046B9
:100E2000194622E750EA410618BF52EA43067FF40A
:100E3000C5AE50EA41047FF40DAF52EA43057FF49A
:100E4000EBAE12E74FF0FF3C06E000BF4FF0010CA5
:100E500002E000BF4FF0010C4DF804CD4FEA410C09
:100E60007FEA6C5C4FEA430C18BF7FEA6C5C1BD0D6
:100E700001B050EA410C0CBF52EA430C91EA030F57
:100E800002BF90EA020F0020704710F1000F91EAB4
:100E9000030F58BF994208BF90422CBFD8176FEA82
:100EA000E37040F0010070474FEA410C7FEA6C5C50
:100EB00002D150EA013C07D14FEA430C7FEA6C5C57
:100EC000D6D152EA033CD3D05DF8040B704700BF83
:100ED0008446104662468C461946634600E000BFD1
:100EE00001B5FFF7B7FF002848BF10F1000F01BDA3
:100EF0004DF808EDFFF7F4FF0CBF012000205DF86E
:100F000008FB00BF4DF808EDFFF7EAFF34BF0120F2
:100F100000205DF808FB00BF4DF808EDFFF7E0FF8B
:100F200094BF012000205DF808FB00BF4DF808EDDC
:100F3000FFF7CEFF94BF012000205DF808FB00BF43
:100F40004DF808EDFFF7C4FF34BF012000205DF825
:100F500008FB00BF4FEA410212F5001215D211D56D
:100F60006FF47873B3EB625212D94FEAC12343F0A6
:100F7000004343EA505311F0004F23FA02F018BF28
:100F8000404270474FF00000704750EA013005D1F1
:100F900011F0004008BF6FF0004070474FF00000B4
:100FA000704700BF4A0011D212F5001211D20DD5C0
:100FB0006FF47873B3EB62520ED44FEAC12343F05F
:100FC000004343EA505323FA02F070474FF0000009
:100FD000704750EA013002D14FF0FF3070474FF0B8
:100FE0000000704753B94AB9002908BF00281CBF48
:100FF0004FF0FF314FF0FF3001F0C0B8ADF1080CF9
:101000006DE904CE00F006F8DDF804E0DDE9022326
:1010100004B070472DE9F047089D04468C46002B2C
:1010200040F083808A42174647D9B2FA82F242B131
:10103000C2F1200024FA00F09140974040EA010CF0
:1010400094404FEA1748230CBCFBF8F61FFA87FEC2
:1010500008FB16C143EA014306FB0EF1994209D988
:10106000FB1806F1FF3080F01981994240F2168199
:10107000023E3B445B1AA4B2B3FBF8F008FB10330A
:1010800044EA034400FB0EFEA64509D93C1900F1D1
:10109000FF3380F00581A64540F2028102383C44CE
:1010A00040EA0640A4EB0E0400261DB1D440002304
:1010B000C5E900433146BDE8F08702B9FFDEB2FA68
:1010C00082F2002A50D1CB1B4FEA174E1FFA87F845
:1010D0000126B3FBFEFC210C0EFB1C3341EA03414D
:1010E00008FB0CF38B4207D979180CF1FF3002D2C0
:1010F0008B4200F2E9808446C91AA3B2B1FBFEF02C
:101100000EFB101143EA014408FB00F8A04507D983
:101110003C1900F1FF3302D2A04500F2D9801846F5
:10112000A4EB080440EA0C40BFE78B4209D9002D2C
:1011300000F0B1800026C5E9000130463146BDE827
:10114000F087B3FA83F6002E4AD18B4202D3824253
:1011500000F2B880841A61EB030101208C46002D57
:10116000A8D0C5E9004CA5E7C2F1200320FA03F698
:10117000974001FA02F04FEA174ED9403043030C72
:10118000B1FBFEF61FFA87F80EFB161143EA014386
:1011900006FB08F1994204FA02F409D9FB1806F19A
:1011A000FF3C80F08D80994240F28A80023E3B44B1
:1011B0005B1A81B2B3FBFEF00EFB103341EA034130
:1011C00000FB08F38B4207D9791800F1FF3C73D27A
:1011D0008B4271D902383944CB1A40EA064678E787
:1011E000C6F1200C03FA06F422FA0CF31C4320FA91
:1011F0000CF701FA06F34FEA144E21FA0CF11F43E3
:101200003B0CB1FBFEF91FFA84F80EFB191143EAFF
:10121000014109FB08FA8A4502FA06F200FA06F3D0
:1012200008D9611809F1FF3048D28A4546D9A9F199
:1012300002092144A1EB0A01BFB2B1FBFEF00EFB93
:10124000101147EA014700FB08F8B84507D9E7192C
:1012500000F1FF312ED2B8452CD90238274440EA9C
:101260000940A7EB0807A0FB02894F45C64649463F
:101270001AD317D05DB1B3EB0E0267EB010707FA83
:101280000CFCF2404CEA0202F740C5E900270026B8
:101290003146BDE8F0872E4628460BE70646E9E6CC
:1012A0001846FDE64345E5D2B8EB020E69EB0401B2
:1012B0000138DFE70846D2E760468DE78146B9E7A7
:1012C000664675E730464AE7ACF1020C394413E74D
:1012D00002383C4424E700BF03685A004CBF43F087
:1012E000004323F000431844704700BF2DE9F84342
:1012F00029B34F1E044615463E464FF0000808EB42
:10130000060101EBD171491004EBC1094846FFF712
:10131000E3FF0346C80008308F42204409D0AB42A7
:1013200009D8FFF7D9FF0138A8420AD201F1010814
:10133000E5E7AB4205D9884501D04E1EDFE74FF007
:1013400000094846BDE8F883012807D0022807D0E5
:10135000044B00280CBF1846002070470248704715
:10136000024870470D1A0000111A0000151A0000FB
:1013700030B5234B83B004468D1E3BB301A92846EC
:10138000AFF30080E8B101992A46FFF7AFFF0146AD
:10139000B8B1FFF7A1FF4B68A064012B2BD0002B45
:1013A00001F1040023DBFFF797FF0023C4E91303D7
:1013B0000368002B10DBFFF78FFF2061002003B0D4
:1013C00030BD00230920236103B030BD0D490E4814
:1013D000091AC9100191D7E7C3F30360FFF7B4FFFF
:1013E0000028206114BF0020092003B030BD012374
:1013F000C4E91303DCE7002323610520DFE700BF16
:1014000000000000E8EA0000D0E700000368DA0707
:1014100010B5044606D49B0700F1480009D500F03A
:101420004BFC2368590709D51A070ED5DB0613D5DF
:1014300010BD00F039FC23685907F5D404F1D00041
:1014400000F042FC23681A07F0D404F5A87000F0FD
:1014500043FC2368DB06EBD404F5E870BDE81040DC
:1014600000F07EBC0346006800B11844704700BF1E
:1014700009207047704700BF70B504460E46316CB6
:101480002046FFF775FF054688B9336C6361324625
:1014900023692146012098470828F0D0072806D163
:1014A0002846316CFFF7E6FF301D00F0F1FB09F034
:1014B000CDF800BF2DE9F0470D1D064614460FCDAF
:1014C000ADF5727D0DF10C0CACE80F000FCDACE862
:1014D0000F000FCDACE80F0095E80F0002ADF768E4
:1014E000D6F818808CE80F0000232B6021E02B6CCD
:1014F00073614FF4F07229467AA800F041FE336917
:101500007AAA314650469847889BCDE90058214633
:101510006B648146334632460120B8470446E8B939
:101520004FF4F0727AA9284600F02AFEB9F1080FAC
:101530001BD1296C3046FFF71BFF09345FFA84FA90
:1015400081460028D3D0AB6B4AF01001CDE900589A
:1015500032466B6401203346B84708B14FF00909A1
:1015600048460DF5727DBDE8F087B9F1070FF5D15A
:101570002046296CFFF77EFF03A800F089FB00BF1F
:10158000406C7047F0B5CB6B0B640E1D0F460546E3
:101590000FCEF9B001AC0FC40FCE0FC40FCE0FC4E5
:1015A00096E80F004FF0FF3684E80F00009606E043
:1015B0002B696A46294698470828044608D110999D
:1015C0002846FFF7D5FE0028F2D0092079B0F0BDFB
:1015D0006846FFF71BFF062CF7D139462846FFF770
:1015E0004BFF00BF30B4DD6BC160826119461D64E2
:1015F000002230BC5EE700BF70B5C66843690B646B
:10160000AEB903690A4604460D46014602209847D2
:10161000072805D008280FD129462046FFF72CFFC0
:101620003046296CFFF726FF281D00F031FB012210
:10163000FFF740FF09F00AF809F008F8C2681AB18C
:10164000CA6B0A64002235E79CE700BF704700BF01
:10165000836801460BB1012018477047012912D059
:1016600009D873B90F2A0CD800EB820218465368C8
:10167000009A136070470339012994BF01200220AA
:101680007047022070470846704700BF10B584B00D
:10169000002303AC0A4600941946FFF7DFFF0398C6
:1016A00004B010BD012912D009D873B90F2A0CD883
:1016B00000EB8200009A12684260184670470339B6
:1016C000012994BF0120022070470220704708467C
:1016D000704700BF10B584B0002303AC03920094A0
:1016E0000A461946FFF7DEFF04B010BDF0B5D36B14
:1016F0001364151D8C4606460FCDADF50F7D17AC56
:101700000FC40FCD0FC40FCD0FC495E80F004FF0DD
:10171000FF3784E80F006546169710E0FFF7DAFF01
:10172000294616A8B047034616AA6946082083B979
:10173000049B9847052804460CD0092809D026990F
:101740006846FFF715FE03466A460C2116A8002BD3
:10175000E4D0092416A8FFF759FE20460DF50F7DA9
:10176000F0BD00BF2DE9F04FCC6C89B00D4654F8A8
:10177000041B0694174600F003081E46002B79D080
:101780000B0CDAB209048DF81D30022304EB82043D
:1017900005918DF81C302B6DB8F1020F08BFAC6BB2
:1017A00013F001030CD0384605A900F073FB18B9FB
:1017B000082009B0BDE8F08F092009B0BDE8F08F1E
:1017C000D4F800A0BAF1000FEDD0019300F00803A7
:1017D0000293022E4AD0B4F800A0B4F80290043468
:1017E000AA6C29F0010B0F2138469344FFF74EFFF6
:1017F000834539D82AF001025A44824294BF00201E
:1018000001204FEA490303F002030AF0010A43EA08
:101810000A03012B49D0022B32D0002BCCD1B8F1D6
:10182000000F02D0002840F0CD800434D4F800A08E
:10183000BAF1000FCDD105A9384600F02BFB0028E6
:10184000BAD1019B002BB3D00F213846FFF71EFF02
:101850000E2102463846FFF73DFF38466A4A0F21FF
:10186000FFF738FF0720A8E70020CAE7D4F8049064
:101870000834B5E7090203230591ADF81C308AE767
:10188000236823F0004BB8F1000F45D128B1029A2C
:10189000002A5CD0BBF1000F74D0002B00DA0434B6
:1018A0000BF1010B04EB8B04C0E7B8F1000F19D169
:1018B000B0B1D4E90023991C4FEAD2723FF47CAF57
:1018C00005F158010133049100F09080201DFFF7CD
:1018D000C9FD04AB01462846AFF3008000285BD168
:1018E0000834A3E70D213846D5F82090FFF7CEFE47
:1018F0008145F5D1AB6A9C42F2D12046FFF7ECFC62
:101900000F2102463846FFF7E5FE38462A460021F9
:10191000FFF7E0FE072050E70D213846D5F820906C
:10192000FFF7B4FE814501D02368B6E7AB6A9C425D
:10193000FAD104220021C5E90B12A318C5F828B07A
:101940006B6323688B4259DB01230193A8E705F100
:101950005803CDF80C8004F1040AB04691461E46A7
:101960000DE00496FFF77EFD04AB014600222846F9
:10197000AFF3008009F101090AF1040AE8B9D94579
:101980005046EED138460D21FFF780FE049B2862B9
:10199000C5E90934062010E781460D213846FFF7D6
:1019A00075FEB9F1020F286225D12B46049A43F83F
:1019B0002C2F6B62AC620620FFE646462368DDF8FA
:1019C0000C806AE72046FFF787FC04340246AC63CC
:1019D00028461446AFF3008000283FF4EDAE3846A9
:1019E00022460F21FFF776FE0720E6E638460D2156
:1019F000FFF74CFE2862049B6B62DBE70BF10100F2
:101A000004EB80007AE700BF000000000023A9E695
:101A10000123A7E60223A5E62DE9F0430646C3B05D
:101A200015461C46042900F2B980DFE801F09A53FC
:101A3000B7290300002C40F0B180102A00F2AE80DC
:101A40000368D80600F1F38020AF384600F092F921
:101A5000B06B0023012404FA03F22A42014604D0A9
:101A600051F8042B47F8232008460133042BF2D108
:101A7000B063384600F074F9002043B0BDE8F0834D
:101A8000032C40F08B8094B204EB1243102B4FEAEE
:101A9000124500F2838003681F0700F1D08020AF59
:101AA000384600F03BF907EBC501B56B54B10B4666
:101AB000E81A01EBC401E4001A5843F8042B8B42E6
:101AC000FAD125443846B56300F006F9002043B04A
:101AD000BDE8F083012C4FEA124895B25AD0052C8C
:101AE0005CD108EB0509B9F1200F57D8B8F10F0FF9
:101AF00077D9A946002D40F08880B36B6DB320AF35
:101B00004FF0000907EBC807043F03EBC50553F886
:101B1000041B47F8041FAB42F9D1B9F1000F0FD0F5
:101B20006F464146102938BF102107EBC1018439A7
:101B300003EBC90553F8040B41F8040FAB42F9D18C
:101B4000012C00F08480B8F10F0FB56345D9B9F1CD
:101B5000000F02D0684600F0B7F8002043B0BDE89F
:101B6000F083DCB9876B2346012094B206F1040CA4
:101B700000FA03F22242394604D051F8042B4CF803
:101B800023200F460133102BF2D115F40050E4D17D
:101B9000B76304E008EB0503102B03D9022043B020
:101BA000BDE8F083B8F10F0FF8D83368DA0706D52F
:101BB000304623F0030340F8483B00F079F820AFAB
:101BC000384600F075F8B36B002D99D11D460435E9
:101BD000B563384600F068F8BFE720A800F06CF85D
:101BE000B5E7B9F1100F40D9A9F110093368D90749
:101BF00008D523F00103304643F0020340F8483B88
:101C000000F05EF8B9F1000F32D033685A0720D4E3
:101C1000B8F10F0F25D96F463846C8F1100500F00E
:101C200057F8002DB36B7FF77CAF20AF6AE723F046
:101C30001003336006F5E87000F09CF804E723F029
:101C40000803036000F5A87000F068F827E720AFEC
:101C5000BDE7304623F0040340F8D03B00F038F8ED
:101C6000D6E720A800F02CF8D5E74FF00009BDE733
:101C7000B8F10F0F3FF641AF20AF384600F020F823
:101C8000B36B002D7FF43CAF384600F015F864E7E5
:101C900000F1340191E838009C46A6464CF8045DFA
:101CA00090E8FF0FE54600BD90EC210B704700BFA8
:101CB00080EC210B704700BF90EC200B704700BFF9
:101CC00080EC200B704700BFD0EC200B704700BFAA
:101CD000C0EC200B704700BFF0EC0201F0EC0211E9
:101CE000F0EC0221F0EC0231F0EC0241F0EC025198
:101CF000F0EC0261F0EC0271F0EC0281F0EC029188
:101D0000F0EC02A1F0EC02B1F0EC02C1F0EC02D177
:101D1000F0EC02E1F0EC02F1704700BFE0EC0201F0
:101D2000E0EC0211E0EC0221E0EC0231E0EC0241D7
:101D3000E0EC0251E0EC0261E0EC0271E0EC0281C7
:101D4000E0EC0291E0EC02A1E0EC02B1E0EC02C1B7
:101D5000E0EC02D1E0EC02E1E0EC02F1704700BF00
:101D6000B0FC0181B0FC0191B0FC01A1B0FC01B15B
:101D7000704700BFA0FC0181A0FC0191A0FC01A163
:101D8000A0FC01B1704700BFEC4600B52DE9005042
:101D90002DE9FF1F4FF000032DE90C0001A9FFF70B
:101DA000F1FBDDF840E012B0704700BFEC4600B533
:101DB0002DE900502DE9FF1F4FF000032DE90C0025
:101DC00001A9FFF719FCDDF840E012B0704700BF31
:101DD000EC4600B52DE900502DE9FF1F4FF0000340
:101DE0002DE90C0001A9FFF729FCDDF840E012B055
:101DF000704700BFEC4600B52DE900502DE9FF1FEC
:101E00004FF000032DE90C0001ABFFF7EBFBDDF811
:101E100040E012B0704700BFEC4600B52DE900501D
:101E20002DE9FF1F4FF000032DE90C0001AAFFF779
:101E30005DFCDDF840E012B0704700BF027A7AB96D
:101E4000437AA3B14268013B10B443721368032183
:101E5000141D01721A024460026010BC180E704713
:101E60000368013A02721A020260180E7047B0202D
:101E7000704700BF00B585B003AA00230092194641
:101E80000C22FFF7EBFB039805B05DF804FB00BFE5
:101E9000F0E700BF2DE9F043054685B00E464FF050
:101EA00000083046FFF7CAFFB028044600F0B280B1
:101EB000070620D500F0F003802B4DD0902B36D0B4
:101EC000A02B60D0B02B74D0C02B00F08B8000F022
:101ED000F803D02B0BD100F00702013242F40022AC
:101EE000052301212846FFF797FD0028D9D00920B6
:101EF00005B0BDE8F0830DF10C09002319468700F9
:101F0000CDF800900D222846FFF7A8FBFFB2039BF7
:101F1000CDF80090043760064CBFDF1BFF1800238C
:101F200019460D2228460397FFF7BCFBB9E700F0DE
:101F30000D030D2BDBD003AF002300F00F02194679
:101F400000972846FFF78AFB0023009719460D22C9
:101F50002846FFF7A7FBA4E73046FFF76FFF2402F0
:101F60002043B0F5004FC2D004010023A2B21946AD
:101F70002846FFF751FD0028B9D114F4004F18BFCF
:101F80004FF001088DE7C24302F007034FF47F6270
:101F90001A41010702F47F624FF0000348BF42F488
:101FA000804219462846FFF737FD00283FF479AFF5
:101FB0009DE7B12833D0B22800F08B80B32839D008
:101FC00000F0FC03B42B92D000F007020132012391
:101FD00042F4002219462846FFF71EFD00283FF470
:101FE00060AF84E7C62842D0C7284CD000F0F80381
:101FF000C02B5BD0C82860D0C9287FF478AF3046AA
:10200000FFF71CFF020300F00F0002F47022013002
:10201000024365E7B8F1000F18D0002068E73046AA
:10202000FFF70CFF024600283FF461AF10F0F00309
:10203000D0D05CE73046FFF701FF010300F00F004E
:1020400001F47021421C01230A43C3E703AC434659
:102050000E22414600942846FFF700FB00942846D4
:1020600043460F224146FFF71DFB404640E73046FE
:10207000FFF7E4FE010300F00F0001F47021421CA1
:1020800003230A43A6E73046FFF7D8FE024600289E
:102090003FF42DAF10F0F0037FF429AF0421284660
:1020A000FFF7BAFC00283FF4FCAE20E700F00F0277
:1020B0000132032342F420228CE73046FFF7BEFEB4
:1020C00000F0F00200F00F031032013343EA023255
:1020D00006E700230DF10C090D221946CDF80090FA
:1020E0002846FFF7BBFA3046FFF7A8FE02064FF07E
:1020F00002070CD5039B00F07F00B8400344304634
:102100000393FFF79BFE030607F10707F2D4039B37
:10211000CDF8009000F07F0403F50172BC4000236D
:10212000144419460D2228460394FFF7BBFAB8E67B
:1021300010B5C26C84B0536803248DF80C401B02A8
:1021400002F108040846D279019301A902948DF89E
:102150000D20FFF79FFE04B010BD00BF08B5FFF7CC
:1021600097FE806C08BD00BF08B5FFF791FEC06CFC
:10217000C379023300EB830008BD00BF704700BF86
:10218000844641EA000313F003036DD1403A41D382
:1021900051F8043B40F8043B51F8043B40F8043B41
:1021A00051F8043B40F8043B51F8043B40F8043B31
:1021B00051F8043B40F8043B51F8043B40F8043B21
:1021C00051F8043B40F8043B51F8043B40F8043B11
:1021D00051F8043B40F8043B51F8043B40F8043B01
:1021E00051F8043B40F8043B51F8043B40F8043BF1
:1021F00051F8043B40F8043B51F8043B40F8043BE1
:1022000051F8043B40F8043B51F8043B40F8043BD0
:10221000403ABDD2303211D351F8043B40F8043B70
:1022200051F8043B40F8043B51F8043B40F8043BB0
:1022300051F8043B40F8043B103AEDD20C3205D380
:1022400051F8043B40F8043B043AF9D2043208D078
:10225000D2071CBF11F8013B00F8013B01D30B88EA
:1022600003806046704700BF082A13D38B078DD0C8
:1022700010F003038AD0C3F10403D21ADB071CBF9A
:1022800011F8013B00F8013B80D331F8023B20F804
:10229000023B7BE7043AD9D3013A11F8013B00F83D
:1022A000013BF9D20B7803704B7843708B788370C5
:1022B00060467047000000000000000000000000C1
:1022C00001F0FF01102A2BDB10F0070F08D010F8E7
:1022D000013B013A8B422DD010F0070F42B3F6D1EB
:1022E000F0B441EA012141EA014122F007047FF004
:1022F00000070023F0E80256083C85EA010586EA5B
:10230000010685FA47F5A3FA87F586FA47F6A5FA96
:1023100087F68EB9EED1F0BC01F0FF0102F00702A2
:1023200032B110F8013B013A83EA010313B1F8D14D
:102330000020704701387047002D06BF354603382E
:10234000073815F0010F07D1013015F4807F02BF67
:10235000013015F4C03F0130F0BC0138704700BFB8
:10236000000000000000000000000000000000006D
:10237000000000000000000000000000000000005D
:1023800090F800F06DE9024520F007016FF0000CB5
:1023900010F0070491F820F040F049804FF000045D
:1023A0006FF00700D1E9002391F840F000F1080038
:1023B00082FA4CF2A4FA8CF283FA4CF3A2FA8CF370
:1023C0004BBBD1E9022382FA4CF200F10800A4FAD7
:1023D0008CF283FA4CF3A2FA8CF3E3B9D1E904232B
:1023E00082FA4CF200F10800A4FA8CF283FA4CF362
:1023F000A2FA8CF37BB9D1E9062301F1200182FA1C
:102400004CF200F10800A4FA8CF283FA4CF3A2FA21
:102410008CF3002BC6D0002A04BF04301A4612BA2F
:10242000B2FA82F2FDE8024500EBD2007047D1E932
:10243000002304F00305C4F100004FEAC50514F0C1
:10244000040F91F840F00CFA05F562EA05021CBF92
:1024500063EA050362464FF00004A9E780B590B037
:1024600000AF78600B46FB70FB78002B27D107F19B
:10247000240300221A605A609A60DA601A615A6175
:102480002D4A7B6852F833307B62012387F828306D
:10249000012387F829304FF0FF333B6307F1240312
:1024A000184606F001FD244A7B68DB001344012234
:1024B0001A717B68DB00204A1344FB6336E0FB782B
:1024C000012B31D107F10C0300221A605A609A6087
:1024D000DA601A615A61184A7B6852F83330FB603F
:1024E00001233B754FF0FF33BB6107F10C03184626
:1024F00006F04CFD104A7B68DB00134402221A717F
:102500007B68292B0AD97B682C2B07D80A4A7B6861
:1025100052F833300121184606F074FD7B68DB0069
:10252000054A1344FB6301E00023FB63FB6B184681
:102530004037BD4680BD00BF0000002080B586B09A
:1025400000AF78607B683B613B69002B0BD03B6937
:102550001B79012B07D13B691B68184606F060FD0B
:102560000346FB7501E00023FB753B691B681B0AF2
:10257000DBB2FB603B691B68DBB2BB60FB68022B14
:1025800002D1BB68062B05D0FB68002B09D1BB68C4
:10259000042B06D1FB7D002B0CBF01230023DBB2F3
:1025A000FB75FB7D18461837BD4680BD80B586B0EB
:1025B00000AF78600B46FB707B687B617B69002B0A
:1025C0002FD07B691B79022B2BD17B691B681B0ADF
:1025D000DBB23B617B691B68DBB2FB603B69012BB3
:1025E00005D1FB68162B08D0FB68152B05D03B697D
:1025F000042B0FD1FB681A2B0CD17B691A68FB786E
:10260000012B14BF01230023DBB21946104606F04C
:10261000F9FC06E07B691B68FA781146184606F05B
:10262000F1FC00BF1837BD4680BD80B485B000AF57
:1026300078607B68FB60FB68002B0ED0FB681B7921
:10264000022B03D1FB6800221A7106E0FB681B799C
:10265000012B02D1FB6800221A7100BF1437BD465E
:102660005DF8047B7047000080B584B000AFF8606F
:10267000B9601346FB71BB681F2B05D90D4B0E4A81
:10268000FF210E4807F0EAFFFB68BA6853F82230D2
:1026900023F0807323F4E063FA79120202F4E0621B
:1026A00043EA0201FB68BA6843F8221000BF103702
:1026B000BD4680BD4CD2000010D4000058D20000AE
:1026C00080B483B000AF78600B46FB707B681B68FA
:1026D00023F01802FB78DB0003F018031A437B6831
:1026E0001A6000BF0C37BD465DF8047B70470000E0
:1026F00080B58EB000AF786187ED020B87ED001BCF
:10270000524A7B695B01134411331B78002B40F064
:102710008780002387F82830002387F8293000239A
:1027200087F82A308023FB62484A7B695B011344A7
:102730001868464A7B695B01134404331968434AAD
:102740007B695B01134410331B781A46FFF78CFF3B
:102750003E4A7B695B01134408331B6807F128027A
:102760001146184606F0C8F9384A7B695B011344E4
:1027700008331B68DBB200220121184606F042FA3A
:10278000324A7B695B011344113304221A702F4AC9
:102790007B695B01134403F11801D7E90223C1E906
:1027A000002302233B7600237B76284A7B695B016A
:1027B00013441833D3E9002310461946FEF7F2FB01
:1027C0000346FB61D7E90001FEF7ECFB03463B62E1
:1027D0000023BB841D4A7B695B01134408331B68DB
:1027E0001B4A52F823303B630021386BFFF768FF28
:1027F000164A7B695B01134408331868134A7B69E6
:102800005B0113440C331B68DAB207F11803194655
:1028100006F056FA7B695B010C4A13447B630FE0B8
:102820000A4A7B695B01134411331B78042B05D1E1
:102830007B695B01054A13447B6301E000237B63F2
:102840007B6B18463837BD4680BD00BF780100203D
:10285000C0DD000080B483B000AF786000BF0C37EB
:10286000BD465DF8047B704780B58AB000AFF86064
:1028700087ED000BFB687B627B6A002B2CD07B6AA8
:102880005B7C042B28D102233B7400237B747B6A7E
:10289000D3E9062310461946FEF784FB03467B6105
:1028A000D7E90001FEF77EFB0346BB610023BB8333
:1028B0007B6A9B680A4A52F823303B620021386ADF
:1028C000FFF7FEFE7B6A98687B6ADB68DAB207F185
:1028D0001003194606F0F4F900BF2837BD4680BD45
:1028E000C0DD000080B485B000AF78607B68FB601D
:1028F000FB68002B06D0FB685B7C042B02D1FB68D5
:1029000000225A7400BF1437BD465DF8047B70473F
:1029100080B483B000AF786000BF0C37BD465DF86F
:10292000047B704780B584B000AFF860B9607A600E
:10293000BB680F2B06D90A4B0A4A40F2E2210A482B
:1029400007F08CFEFA68BB685B01134403F5805303
:1029500010337A681A6000BF1037BD4680BD00BFD3
:1029600090D2000048D40000BCD2000080B584B0F2
:1029700000AFF860B9601346FB71BB680F2B06D936
:102980000D4B0E4A4FF460710D4807F067FEBB68AF
:102990005B0103F580531833FA681344043303F1E1
:1029A000424303F580135B010433FA7992B21A8033
:1029B00000BF1037BD4680BD90D2000064D4000037
:1029C000BCD2000090B587B000AFF8607A603B6081
:1029D0000B46FB7200237B61FB681B68032B00F036
:1029E000E481032B05D8012B00F09880022B00F026
:1029F0004781954B00221A60934B1B68934A52F80B
:102A00002330002B41D1904B1B68914ADB001344CB
:102A100000229A718C4B1B688D4ADB001344002204
:102A20001A71894B1B688A4ADB00134400225A71D1
:102A3000854B1B68864A4FF4E13142F83310824BD4
:102A40001B68184603F024F87F4B1B689B01814AE2
:102A500013448149184605F05BFF7B4B18687A4B9D
:102A60001A6813461B019B1A9B007C4A9918764BE7
:102A70001B68DB00764A13441A4606F0C3FF724B0C
:102A80001B68724A012142F823107B68B3F1FF3FB3
:102A900020D06D4B1A68724913469B0013449B006B
:102AA0000B440A221A60684B1A686D4913469B0052
:102AB00013449B000B4408336A4A1A60624B1A683D
:102AC000674913469B0013449B000B440C33664A32
:102AD0001A6015E05C4B1A68614913469B00134469
:102AE0009B000B44043384221A60574B1A685C49DC
:102AF00013469B0013449B000B4410335B4A1A603F
:102B0000514B1B68504A1268594941F823204E4BDB
:102B10001B689B00564A13447B61DBE14A4B012250
:102B20001A60494B1B68494A52F82330002B41D1A7
:102B3000454B1B68464ADB00134400229A71424B06
:102B40001B68434ADB00134400221A713E4B1B688A
:102B50003F4ADB00134400225A713B4B1B683C4A3E
:102B60004FF4E13142F83310374B1B68184602F03E
:102B70008FFF354B1B689B01364A13443649184674
:102B800005F0C6FE304B18682F4B1A6813461B0120
:102B90009B1A9B00314A99182B4B1B68DB002C4A6F
:102BA00013441A4606F02EFF274B1B68274A0121C3
:102BB00042F823107B68B3F1FF3F20D0224B1A6804
:102BC000274913469B0013449B000B4400221A60C4
:102BD0001D4B1A68224913469B0013449B000B446B
:102BE0000833244A1A60184B1A681D4913469B0083
:102BF00013449B000B440C331F4A1A6015E0124B20
:102C00001A68174913469B0013449B000B44043376
:102C100000221A600C4B1A68114913469B0013449A
:102C20009B000B441033154A1A60074B1B68064A79
:102C300012680F4941F82320034B1B689B000C4A84
:102C400013447B6146E100BF1C15002020150020C5
:102C50003C1400205411002078060020D4120020DB
:102C600074140020B8100020C4100020D0100020E0
:102C700004150020D0100020D01000205411002096
:102C8000AD4B02221A60AC4B1B68AC4A52F82330A1
:102C9000002B41D1A84B1B68A94ADB00134400223A
:102CA0009A71A54B1B68A64ADB00134400221A71D7
:102CB000A14B1B68A24ADB00134400225A719E4BB1
:102CC0001B689F4A4FF4E13142F833109A4B1B685E
:102CD000184602F0DDFE984B1B689B01994A13448D
:102CE0009949184605F014FE934B1868924B1A68E0
:102CF00013461B019B1A9B00944A99188E4B1B6824
:102D0000DB008F4A13441A4606F07CFE8A4B1B6890
:102D10008A4A012142F823107B68B3F1FF3F20D09B
:102D2000854B1A688A4913469B0013449B000B4449
:102D300000221A60804B1A68854913469B00134491
:102D40009B000B440833834A1A607B4B1A68804906
:102D500013469B0013449B000B440C337E4A1A60BD
:102D600015E0754B1A687A4913469B0013449B0083
:102D70000B44043300221A606F4B1A6874491346DF
:102D80009B0013449B000B441033744A1A606A4B37
:102D90001B68694A1268724941F82320664B1B6818
:102DA0009B006F4A13447B6194E0634B03221A60DB
:102DB000614B1B68614A52F82330002B41D15E4BB6
:102DC0001B685F4ADB00134400229A715A4B1B6850
:102DD0005B4ADB00134400221A71574B1B68584AA8
:102DE000DB00134400225A71534B1B68544A4FF4C2
:102DF000E13142F83310504B1B68184602F048FE90
:102E00004D4B1B689B014F4A13444F49184605F030
:102E10007FFD494B1868484B1A6813461B019B1AE3
:102E20009B004A4A9918444B1B68DB00444A1344F0
:102E30001A4606F0E7FD404B1B68404A012142F864
:102E400023107B68B3F1FF3F20D03B4B1A68404909
:102E500013469B0013449B000B4400221A60364B20
:102E60001A683B4913469B0013449B000B440833EC
:102E70003C4A1A60304B1A68354913469B0013448C
:102E80009B000B440C33384A1A6015E02A4B1A6831
:102E90002F4913469B0013449B000B44043300222C
:102EA0001A60254B1A682A4913469B0013449B005D
:102EB0000B4410332D4A1A601F4B1B681E4A1268C0
:102EC000274941F823201C4B1B689B00244A1344CC
:102ED0007B6100BF7B68B3F1FF3F27D0164B1A68B8
:102EE00013461B019B1A9B002833184A13440433D2
:102EF000114A12681E49184605F04CFD0E4B186821
:102F00000D4B1A68124913469B0013449B000B4457
:102F100008331968084B1A680D4C13469B0013447C
:102F20009B0023441B681A4600F0E0F87B691846B2
:102F30001C37BD4690BD00BF1C1500202015002089
:102F40003C1400205411002078060020D4120020E8
:102F500074140020D0100020D01000205411002044
:102F600004150020D0100020D010002054110020A3
:102F70009931000080B483B000AF786039600023DD
:102F800018460C37BD465DF8047B704780B483B0AB
:102F900000AF7860084611461A460346FB700B46A0
:102FA000BB7013467B70002318460C37BD465DF896
:102FB000047B704780B586B000AFF860B9607A6076
:102FC000FB683B613B69002B33D03B691B681F4AA0
:102FD000D35C012B2DD13B691B681D4A52F823306D
:102FE000012B0FD13B691A681A4913469B00134401
:102FF0009B000B4408331B687A681946B868FFF7D2
:10300000BFF80EE03B691A68124913469B0013444F
:103010009B000B440C331B687A681946B868FFF7AD
:10302000AFF83B691B68094A0021D1540023FB75A6
:1030300006E07A680021B86807F052FE2023FB758D
:10304000FB7D18461837BD4680BD00BF6C140020BC
:10305000EC1400207414002080B586B000AFF86036
:10306000B9607A60FB683B613B69002B2AD03B6901
:103070001B680021184606F019FE0346082B21D0D4
:103080003B691A68134913469B0013449B000B4489
:1030900010331B687A68B9681846FFF771F83B6906
:1030A00018683B691A680B4913469B0013449B0040
:1030B0000B4410331B687A68194606F0D3FD0346AB
:1030C000FB7501E02023FB75FB7D18461837BD46D4
:1030D00080BD00BF7414002080B483B000AF78605E
:1030E00000BF0C37BD465DF8047B704780B588B0E3
:1030F00000AFF860B9607A60FB68052B06D9214BF8
:10310000214A40F28911214807F0A8FA204AFB68B9
:1031100052F82330FB61FB6993F82C301B09DBB2BA
:103120001A461C4B53F82230BB61FB6993F82C30D4
:1031300003F00F037B61FB695B78DBB2002B01D0EE
:1031400009231AE0FB6901225A70BB681A467969A3
:10315000B869FFF7E7FB7A687969B86905F016FB8B
:1031600001227969B869FFF701FC7B69DBB20122B2
:103170001946B86905F0F5F9002318462037BD4611
:1031800080BD00BFF4D2000024D4000014D300009E
:10319000505A002080DB000080B582B000AF78601C
:1031A0000B46FB707B68184600F004F800BF083738
:1031B000BD4680BD80B586B000AF78607B68052BCA
:1031C00006D93C4B3C4A40F2AD113C4807F046FA68
:1031D0003B4A7B6852F823307B617B6993F82C3043
:1031E0001B09DBB21A46374B53F822303B617B692F
:1031F00093F82C3003F00F03FB600022F968386964
:10320000FFF7B4FBFB68DBB200221946386905F012
:10321000A8F97B69DB78DBB2002B04D07B69103323
:10322000184604F013FE7B6900225A70264A7B6818
:10323000134401221A70254A7B6852F82330002B70
:103240001AD123497A6813469B0013449B000B4410
:103250000C3319681E487A6813469B0013449B0080
:1032600003441B681A467868FFF740FF174A7B68DB
:10327000012142F8231019E015497A6813469B0092
:1032800013449B000B440833196811487A681346AD
:103290009B0013449B0003441B681A467868FFF7A1
:1032A00025FF0A4A7B68002142F8231000BF183727
:1032B000BD4680BDF4D200007CD4000014D30000D1
:1032C000505A002080DB00006C140020EC14002019
:1032D0007414002080B586B000AF786026497A6803
:1032E00013465B0013449B000B4409331B78002BEF
:1032F00027D107F10803184605F04CF80323FB72A9
:103300001D497A6813465B0013449B000B441B68FD
:1033100007F108021146184605F04EF816497A687A
:1033200013465B0013449B000B44093303221A70BD
:103330007A6813465B0013449B000F4A13447B6179
:1033400015E00D497A6813465B0013449B000B445B
:1033500009331B78032B08D17A6813465B001344AA
:103360009B00054A13447B6101E000237B617B697C
:1033700018461837BD4680BD3804002080B485B09B
:1033800000AFF8600B467A60FB7200BF1437BD4691
:103390005DF8047B7047000080B58AB000AFF8602C
:1033A000B9601346FB71FB68FB61FB69002B3AD0E7
:1033B000FB691B7A3B750023BB7500237B75FB699A
:1033C0001B680121184605F03FF8FB691868FB6986
:1033D0005B6807F11402194605F056F8FB691A6894
:1033E000FB695B681946104605F06AF8FB691A68C4
:1033F000FB695B681946104605F086F803467B8337
:103400007B8B07EE903AF8EE677A17EE900AFDF79D
:10341000AFFA0DA3D3E90023FDF702FB02460B46EA
:10342000C7E9082305E04FF000024FF00003C7E9A9
:103430000823B968D7E90823C1E9002300BF28376A
:10344000BD4680BDAFF30080100010001000F03EBC
:1034500080B483B000AF786000BF0C37BD465DF824
:10346000047B704780B483B000AF786000BF0C3736
:10347000BD465DF8047B704780B483B000AF7860D0
:1034800000BF0C37BD465DF8047B704780B588B03F
:1034900000AF78617B691B68FB61FB690133BB612D
:1034A0000FE0FB69DB000E4A1A443B461146184602
:1034B00002F026FF0B4B1B68002B08D1B86901F006
:1034C00073FB094B1B78DBB2002BEAD100E000BF95
:1034D000002002F061FE002318462037BD4680BD63
:1034E0004C150020701500207A06002080B586B0AB
:1034F00000AF78611B4B1B681B68002B0CBF0123BE
:103500000023DBB21A46184B1A701AE03B461749E3
:10351000184602F0F5FE134B1B685B79002B02D1B5
:10352000134802F0DAFE002001F03EFB0D4B1B6851
:103530001B68002B14BF01230023DBB21A460D4B7E
:103540001A70094B1B78DBB2002BDFD1786900F0D1
:1035500013F8002002F020FE002318461837BD465D
:1035600080BD00BFA8D400007A06002044150020CA
:103570004C1500203815002080B586B002AF786069
:103580001E4B01221A600023FB6010E0FB68DB0089
:103590001B4A1344184602F0A0FEFB68DB00184AE1
:1035A0001344184602F0C6FEFB680133FB60FB685B
:1035B000002BEBDD0023FB6010E01249FA68134694
:1035C0009B0013449B000B440F4A01921A6900921E
:1035D0000FCB02F0F2FDFB680133FB60FB68002BB0
:1035E000EBDD0A4B00221A7001F03AFD084802F0A8
:1035F00074FE002318461037BD4680BD70150020AC
:103600004C150020741500206C1500207A0600204F
:103610003C15002080B586B000AF786139610E4B53
:1036200029221A6002F004F802F0CCF90B4B1B6857
:1036300000221A6001F0D0FA01209FED090A02F081
:10364000BFFC3B460749184602F05AFE00231846C5
:103650001837BD4680BD00BF88150020A8D40000E3
:103660006F12833A3C15002080B586B000AF7860B9
:103670007B6801225A604FF0FF337B610023FB60BF
:1036800007F10C000A237A690021FFF79BF9024633
:103690007B681A617B681B694FF4E1311846FFF7BC
:1036A00069FC0123FB740023BB747B681869FB7CF5
:1036B000BA7C0821FFF76AFC7B6801221A7200BFFE
:1036C0001837BD4680BD000080B582B000AF2E4BDC
:1036D000002283F820202C4B012283F8AE212B4BB3
:1036E000D3E906232849C1E90E23294B7B60264BE9
:1036F00001225A621020FFF7EDFD02467B681A6135
:103700000023FB70204B1B6BF97800221846FFF753
:1037100035FE1D4B012283F828201B4B00221A7016
:10372000194B012283F8AC21184BD3E90823164921
:10373000C1E90623144B7B60134B01225A60112010
:10374000FFF7C8FD02467B681A610023FB700E4B31
:103750001B69F97800221846FFF710FE0A4B012278
:103760001A72094B0022C3F8A420074B002283F8E9
:10377000A020054B012283F8AD210648FFF774FF16
:1037800000BF0837BD4680BDE0170020800600203E
:10379000001800208018002080B582B000AF8C494E
:1037A0004FF000024FF00003C1E94823884B00228C
:1037B000A3F8B02186494FF000024FF00003C1E9A1
:1037C0004A2383494FF000024FF00003C1E94C2324
:1037D0007F494FF000024FF00003C1E94E237C4BBC
:1037E0000022A3F8B2217A494FF000024FF0000303
:1037F000C1E9502376494FF000024FF00003C1E9C0
:10380000522373494FF000024FF00003C1E95423E3
:103810006F494FF000024FF00003C1E956236C4995
:103820004FF000024FF00003C1E9582368494FF000
:1038300000024FF00003C1E95A2365494FF000022E
:103840004FF00003C1E95C2361494FF000024FF0E3
:103850000003C1E95E235E494FF000024FF0000310
:10386000C1E960235A494FF000024FF00003C1E95B
:103870006223082257495848FEF782FC0222574922
:103880005748FEF77DFC082256495748FEF778FC5A
:10389000082256495648FEF773FC082255495648F7
:1038A000FEF76EFC022255495548FEF769FC0822D6
:1038B00054495548FEF764FC082254495448FEF721
:1038C0005FFC082253495448FEF75AFC082253492A
:1038D0005348FEF755FC082252495348FEF750FC66
:1038E000082252495248FEF74BFC082251495248DF
:1038F000FEF746FC082251495148FEF741FC0822D8
:1039000050495148FEF73CFC082250495048FEF708
:1039100037FC504BD3E90E014F4BD3E90623FDF79B
:10392000E7FA0346002B05D14B4BD3E9062349495F
:10393000C1E90E23474B1B6B1846FFF789FD454B2A
:103940001B6B072245491846FFF726FD082243490D
:103950004348FEF715FC3F4BD3E906013E4BD3E944
:103960000823FDF7C5FA0346002B05D13A4BD3E9EE
:1039700008233849C1E90623364B1B691846FFF76F
:1039800067FD344B1B69072236491846FFF704FDD3
:10399000082234493448FEF7F3FB0D4B93F8C62157
:1039A0000B4B83F88C200A4B93F8C721084B83F804
:1039B0008D20074B93F8E021054B83F8A620044B9C
:1039C00093F8E121024B83F8A72000237B601FE1DD
:1039D00090150020B01600204E1700204017002040
:1039E00056170020B816002058170020C0160020D7
:1039F00060170020C816002068170020421700201A
:103A000070170020D016002072170020D816002052
:103A10007A170020E016002082170020E816002008
:103A20008A170020F016002092170020F8160020B8
:103A30009A17002000170020A21700200817002066
:103A4000AA17002010170020B21700201817002016
:103A5000BA170020E0170020800600202817002059
:103A6000C217002020170020CA170020774A7B6861
:103A7000134403F5DF731978744A7B681344843365
:103A80000A461A707B680A3370497A680A4402F55C
:103A9000E47211786D4A13440A4683F884207B68E7
:103AA00012336A497A680A4402F5E8721178674A63
:103AB00013440A4683F884207B681A3363497A6882
:103AC0000A4402F5EC721178604A13440A4683F8FE
:103AD00084207B6824335D497A680A4402F5F172D8
:103AE00011785A4A13440A4683F884207B682C33A1
:103AF00056497A680A4402F5F5721178534A13441C
:103B00000A4683F884207B68343350497A680A4433
:103B100002F5F97211784D4A13440A4683F884205D
:103B20007B683C3349497A680A4402F5FD72117892
:103B3000464A13440A4683F884207B684433434949
:103B40007A680A4402F202221178404A13440A4673
:103B500083F884207B684C333C497A680A4402F23B
:103B60000A221178394A13440A4683F884207B6874
:103B7000543336497A680A4402F212221178334AE1
:103B800013440A4683F884207B685C332F497A68A3
:103B90000A4402F21A2211782C4A13440A4683F886
:103BA00084207B68643329497A680A4402F222221D
:103BB0001178264A13440A4683F884207B686C33C4
:103BC00022497A680A4402F22A2211781F4A1344D1
:103BD0000A4683F884207B6874331C497A680A4457
:103BE00002F232221178194A13440A4683F88420DB
:103BF0007B687C3315497A680A4402F23A221178CC
:103C0000124A13440A4683F884207B6801337B60A0
:103C10007B68072B7FF72AAF0123FB700EE084221D
:103C20000B490A48FEF7ACFA0A4BD3F8B0308422AD
:103C300006491846FFF710FA0346FB70FB78002B85
:103C4000EDD100BF00BF0837BD4680BD90150020F4
:103C500014160020E017002080B500AF274B93F822
:103C60002030002B16D1254B012283F82020234B36
:103C70005B6A012B0ED1214B93F82830002B09D021
:103C80001E4B1B6B1846FFF7EDFB1C4B1B6B1846BE
:103C9000FFF7F2FB194B1B78002B14D1174B0122B5
:103CA0001A70164B5B68012B0DD1144B1B7A002B3D
:103CB00009D0124B1B691846FFF7D4FB0F4B1B6949
:103CC0001846FFF7D9FB0D4B93F8A030002B13D10A
:103CD0000A4B012283F8A020084BD3F8A430012B13
:103CE0000AD1064B93F8A830002B05D0034BD3F82C
:103CF000B0301846FFF7F0F900BF80BDE017002094
:103D000080B400AF084B5A790132D2B25A71064BD7
:103D10005B79632B02D9044B00225A7100BFBD4668
:103D20005DF8047B704700BFA019002080B582B009
:103D300000AF78607B6801225A601A4B4FF0FF3267
:103D4000C3F80821174B0022C3F80C21154BD3F8F8
:103D500008310A2200211448FEF734FE02467B682F
:103D60001A617B681B694FF4E1311846FFF702F9CD
:103D70000C4B012283F810210A4B002283F81121F9
:103D80007B681869074B93F81121064B93F81031A3
:103D90000821FFF7FBF87B6801221A7200BF083781
:103DA000BD4680BD901500209C16002080B400AF59
:103DB000164B3522A3F8B421144B002283F84A2273
:103DC000124B012283F84522104B002283F8432234
:103DD0000E4B002283F847220C4B002283F8482226
:103DE0000A4B002283F84222084B002283F8492222
:103DF000064B012283F84622044B012283F8442219
:103E000000BFBD465DF8047B704700BF90150020E1
:103E100080B588B000AF00237B77644B012283F824
:103E20004A22624B012283F84422604B93F84B32C2
:103E3000002B0ED05E4B012283F8B0215C4B032295
:103E400083F8A8215A4B0022C3F8A421FFF7AEFF44
:103E5000A8E0564BD3E94601564BD3E90C23FCF7B7
:103E600027FC02460B46C7E90423524BB3F95830EE
:103E70001846FCF76BFD02460B46D7E90401FCF738
:103E800017FC02460B4643EC172BB0EE470AF0EE48
:103E9000670A02F059FAB0EE407AF0EE607A87EDE8
:103EA000027B4FF00002444BD7E90201FDF72AF8EC
:103EB0000346002B14D04FF00002404BD7E902011B
:103EC000FDF734F80346002B06D0D7E90201FDF7D1
:103ED00041F80346FB8306E04FF40043FB8302E016
:103EE00047F6FF73FB83324BD3F8A4311A466423A1
:103EF00003FB02F37B6000237B77B7F91E307A68FF
:103F00009A4207D32A4B93F8B031002B02D10123F8
:103F10007B7718E097ED040B06F0AEF953EC102B0D
:103F200010461946FDF73EF802467B6893420AD3D5
:103F30001F4B93F8B031002B05D01D4B002283F8A6
:103F4000B02101237B777B7F002B2BD0184B0122E4
:103F500083F8A821164B0022C3F8A421134B00229A
:103F600083F84A22114B002283F844220F4B01228E
:103F700083F845220D4B002283F843220B4B00228D
:103F800083F84622094B002283F84722074B002280
:103F900083F84822054B002283F84922034B012273
:103FA00083F8422200BF2037BD4680BD9015002017
:103FB000E0170020800600200000E0400000E0C084
:103FC00080B500AF1B4BD3E910014FF000021A4B34
:103FD000FCF750FE02460B46104619464FF0000211
:103FE000164BFCF71DFD02460B461549C1E9682337
:103FF000134B012283F84422114B012283F84522FE
:104000000F4B002283F843220D4B002283F84722F6
:104010000B4B002283F84822094B002283F84222EE
:10402000074B002283F84922054B012283F84622E0
:1040300000BF80BD800600200000144000005940F1
:104040009015002080B400AF17494FF00002174BC5
:10405000C1E96A23144B002283F84A22124B012241
:1040600083F84522104B002283F843220E4B002296
:1040700083F847220C4B002283F848220A4B002287
:1040800083F84222084B002283F84622064B012285
:1040900083F84922044B012283F8442200BFBD4625
:1040A0005DF8047B704700BF9015002000805140F0
:1040B00080B500AF1B4BD3E90E014FF000021A4B45
:1040C000FCF7D8FD02460B46104619464FF0000299
:1040D000164BFCF7A5FC02460B461549C1E96823BF
:1040E000134B012283F84422114B012283F845220D
:1040F0000F4B002283F843220D4B002283F8472206
:104100000B4B002283F84822094B002283F84222FD
:10411000074B002283F84622054B012283F84922EF
:1041200000BF80BD80060020000014400000594000
:104130009015002090B585B000AF00237B73654BD0
:10414000012283F84A22634B012283F84422614B07
:1041500093F84C32002B0ED05F4B012283F8B02134
:104160005D4B0B2283F8A8215B4B0022C3F8A421EE
:10417000FFF768FFAAE0574BD3E94601574BD3E955
:104180000A23FCF795FA02460B46C7E900230023F1
:104190007B73514BD3F8A4311A46642303FB02F31B
:1041A0001C4697ED000B06F067F853EC102B1046F9
:1041B0001946FCF7F7FE03469C420BD3464B93F897
:1041C000B031002B06D0444B002283F8B0210123EC
:1041D0007B7350E0414BB3F958301846FCF7B6FBFF
:1041E00002460B46D7E90001FCF762FA02460B468D
:1041F00043EC172BB0EE470AF0EE670A02F0A4F882
:10420000B0EE407AF0EE607A87ED007B4FF000026E
:10421000334BD7E90001FCF775FE0346002B14D0A1
:104220004FF000022F4BD7E90001FCF77FFE034659
:10423000002B06D0D7E90001FCF78CFE0346FB817A
:1042400006E04FF40043FB8102E047F6FF73FB8179
:10425000214BD3F8A4311A46642303FB02F31A4618
:10426000B7F90E309A4206D31B4B93F8B031002BAE
:1042700001D101237B737B7B002B27D0164B0922B6
:1042800083F8A821144B0022C3F8A421114B00226B
:1042900083F844220F4B012283F845220D4B002264
:1042A00083F842220B4B002283F84622094B00225E
:1042B00083F84722074B002283F84822054B00224F
:1042C00083F84922034B012283F8432200BF1437AD
:1042D000BD4690BD90150020E0170020800600200C
:1042E0000000E0400000E0C080B500AFFFF708FD2F
:1042F00000BF80BDB0B586B000AF984BD3E92601B2
:10430000974BD3E90423FCF7F3FD0346002B05D1BB
:10431000934BD3E904239149C1E926238F4BD3F86A
:10432000903039460A221846FEF744FE0346FB75D4
:10433000394607F10C030A221846FDF721FF874B87
:1043400093F8AB31002B08D1844B012283F8AB21C9
:10435000824B022283F8AA213CE0804B93F8AA31D9
:10436000032B10D0032B13DC012B02D0022B05D022
:104370000EE07A4B042283F8AA212BE0774B04222B
:1043800083F8AA2126E0754B042283F8AA2121E0B4
:10439000FB7D002B1DD13B7B162B16D17B7B222B6B
:1043A00004D16E4B032283F8AA2112E07B7B332BCE
:1043B00006D16A4B012283F8AA21FFF7EDF908E044
:1043C000664B042283F8AA2103E0644B042283F89D
:1043D000AA2100BF614BD3E91E01614BD3E9002341
:1043E000FCF786FD0346002B05D15D4BD3E9002386
:1043F0005A49C1E91E23594B1B6F1846FEF79EF818
:1044000003461A46574B83F84C2200220221564895
:1044100002F014F855EC104B514BB3F95C301846D0
:10442000FCF794FA02460B4620462946FCF722FC8C
:1044300002460B464B49C1E94623484BD3E91601D6
:10444000474BD3E90223FCF753FD0346002B05D16C
:10445000434BD3E902234149C1E916233F4B1B6D6E
:104460001846FEF76BF803461A463E4B83F84B227C
:104470003A4BD3F8A431B3F1FF3F06D0374BD3F812
:10448000A4310133354AC2F8A431344B93F8A93131
:10449000002B0CD1314B012283F8A9212F4B06228E
:1044A00083F8A8212D4B002283F8B021DEE22B4BAC
:1044B00093F8A831013B092B00F25C8201A252F86B
:1044C00023F000BFED440000574500006D4500009B
:1044D00041460000F94600005B470000DD47000050
:1044E000914800000D4900006F4900001D4B00225B
:1044F00083F84A221B4B002283F84422194B0122E5
:1045000083F84522174B002283F84622154B0022E0
:1045100083F84722134B002283F84822114B0022D4
:1045200083F849220D4BD3F8A4311A46642303FBC8
:1045300002F31A460A4BB3F958309A42C0F085820A
:10454000064B032283F8A821044B0022C3F8A421C0
:10455000FFF72CFC79E2FFF75BFC87E2E017002015
:104560008006002090150020D0060020C34B352285
:10457000A3F8B421C14B002283F84A22BF4B012289
:1045800083F84522BD4B002283F84722BB4B002213
:1045900083F84822B94B002283F84922B74B012205
:1045A00083F84622B54B012283F84422B44BD3F85A
:1045B000A4311A46642303FB02F31C46B14B93ED6E
:1045C0000C7BB0EE470AF0EE670A05F055FE53EC9F
:1045D000102B10461946FCF7E5FC03469C42C0F040
:1045E0003682A74B022283F8A821A54B0022C3F8EC
:1045F000A421A24B012283F84A22A04B002283F877
:1046000042229E4B002283F843229E4BD3E91001A5
:104610004FF000029C4BFCF72DFB02460B46104668
:1046200019464FF00002994BFCF7FAF902460B4687
:104630009249C1E96823914B012283F8442206E2A2
:104640008E4B012283F844228C4B012283F84522B1
:104650008A4B002283F84722884B002283F84822A5
:10466000864B002283F84922844B012283F846229C
:10467000834BD3F8A4311A46642303FB02F31C4690
:104680007E4B93ED467BB0EE470AF0EE670A05F0ED
:10469000F3FD53EC102B10461946FCF783FC034640
:1046A0009C42C0F0D681764B052283F8A821744B3A
:1046B0000022C3F8A421714B002283F844226F4BDF
:1046C000012283F845226D4B002283F843226B4B75
:1046D000002283F84622694B002283F84722674B69
:1046E000002283F84822654B002283F84922634B5D
:1046F000012283F84222ACE1604B002283F844227D
:104700005E4B012283F845225C4B002283F846224F
:104710005A4B002283F84722584B002283F8482244
:10472000564B002283F84922554BD3F8A4311A4640
:10473000642303FB02F31A46524BB3F958309A42F2
:10474000C0F089814E4B042283F8A8214C4B0022F3
:10475000C3F8A421FFF734FC7DE14A4BB3F95E3086
:10476000012B0AD1464B072283F8A821444B002293
:10477000C3F8A421FFF79CFC6FE1424BB3F95E3014
:10478000022B0AD13E4B0B2283F8A8213C4B00227E
:10479000C3F8A421FFF756FC5FE13A4BB3F95E3052
:1047A000032B0AD1364B042283F8A821344B002274
:1047B000C3F8A421FFF704FC4FE1324BB3F95E309C
:1047C000042B40F04A812E4B032283F8A8212C4B66
:1047D0000022C3F8A421FFF7E9FA3EE1274B0122AA
:1047E00083F84422254B012283F84522234B0022E3
:1047F00083F84722214B002283F848221F4B0022D6
:1048000083F846221D4B012283F849221C4BD3F822
:10481000A4311A46642303FB02F31A46194BB3F979
:1048200058309A42C0F01B81154B082283F8A8210A
:10483000134B0022C3F8A421104B002283F844221A
:104840000E4B012283F845220C4B002283F84222B2
:104850000A4B002283F84622084B002283F84722A5
:10486000064B002283F84822044B002283F8492299
:10487000024B012283F84322F1E000BF9015002093
:10488000E01700208006002000001440000059407E
:10489000BD4B002283F84422BB4B012283F8452202
:1048A000B94B002283F84622B74B002283F84722F7
:1048B000B54B002283F84822B34B002283F84922EB
:1048C000B24BD3F8A4311A46642303FB02F31C460F
:1048D000AD4B93ED467BB0EE470AF0EE670A05F06C
:1048E000CBFC53EC102B10461946FCF75BFB034640
:1048F0009C42C0F0B680A54B072283F8A821A34BA9
:104900000022C3F8A421FFF7D3FBAAE09E4B0022AC
:1049100083F844229C4B012283F845229A4B0022C3
:1049200083F84622984B002283F84722964B0022B8
:1049300083F84822944B002283F84922934BD3F802
:10494000A4311A46642303FB02F31A46904BB3F9D1
:1049500058309A42C0F087808C4B0B2283F8A821F4
:104960008A4B0022C3F8A421FFF76CFB7BE0FFF722
:10497000E1FB7BE084494FF00002864BC1E96A23EA
:10498000814B002283F84A227F4B012283F8452283
:104990007D4B002283F847227B4B002283F848227C
:1049A000794B002283F84622774B012283F8492273
:1049B000754B012283F84422744BD3F8A4311A4674
:1049C000642303FB02F31C46714B93ED0A7BB0EEAC
:1049D000470AF0EE670A05F04FFC53EC102B104627
:1049E0001946FCF7DFFA03469C423ED3674B0A2286
:1049F00083F8A821654B0022C3F8A421624B012251
:104A000083F84A22604B002283F842225E4B002248
:104A100083F843225E4BD3E90E014FF000025E4B58
:104A2000FCF728F902460B46104619464FF00002E3
:104A30005A4BFBF7F5FF02460B465349C1E9682381
:104A4000514B012283F844220FE000BF0EE000BF6B
:104A50000CE000BF0AE000BF08E000BF06E000BFB6
:104A600004E000BF02E000BF00E000BF474BD3F806
:104A70008C31454A92ED6A7BB0EE470AF0EE670A48
:104A80001846FDF7F1FE414BD3F8C4303E4A92F888
:104A9000422211461846FDF789FD3C4BD3F8D83029
:104AA000394A92F8432211461846FDF77FFD374BED
:104AB000D3F87831344A92ED687BB0EE470AF0EED5
:104AC000670A1846FDF7D0FE304BD3F850312E4A16
:104AD00092F8442211461846FDF768FD2B4BD3F897
:104AE0003C31294A92F8452211461846FDF75EFDF1
:104AF000264BD3F82831244A92F84622114618460C
:104B0000FDF754FD214BD3F814311F4A92F8472288
:104B100011461846FDF74AFD1C4BD3F800311A4ADE
:104B200092F8482211461846FDF740FD174BD3F87E
:104B3000EC30154A92F8492211461846FDF736FD29
:104B4000124BD3F86431104A92F84A2211461846A3
:104B5000FDF72CFD0D4BD3F8A0410B4BB3F9B4314D
:104B60001846FBF7F3FE02460B4643EC102B20469B
:104B7000FDF77AFE08220A490A48FDF701FB00BF4B
:104B80001837BD46B0BD00BF90150020E0170020CB
:104B90008006002000805140000014400000594071
:104BA000A0D400004617002080B582B000AF786026
:104BB0007B68002B03D07B68012B03D005E0FFF757
:104BC00093FB02E0FFF796FB00BF00BF0837BD462E
:104BD00080BD00000000000080B584B000AFC04B75
:104BE00008220021184606F07BF84FF414720021C9
:104BF000BC4806F075F84FF4E0720021BA4806F0A0
:104C00006FF8B94B0022C3F88420B74B002283F819
:104C10008020B54B012283F8AF21B44BD3E90423A4
:104C2000B149C1E92623B248FFF780F8FEF74CFDF1
:104C3000AD4B002283F86020AB4B012283F8BE21EC
:104C4000AA4BD3E90023A849C1E91E23A94BFB6065
:104C5000A54B01225A6600210120FDF7FFFB024609
:104C6000FB681A61A04B012283F868209E4B00224A
:104C700083F840209C4B012283F8BD219B4BD3E954
:104C800002239949C1E916239B4BFB60964B0122F5
:104C90005A6400210020FDF7E1FB0246FB681A611F
:104CA000914B012283F848208F4B002283F87C210E
:104CB0008D4B012283F8B221904BBB608A4B0122BD
:104CC000C3F880219FED801B9FED810B0320FDF732
:104CD0000FFD0246BB681A61834BD3F88C3118462E
:104CE000FDF7B8FD804B012283F884217E4B002222
:104CF00083F8B4207C4B012283F8B421804B7B6085
:104D0000794B0122C3F8B82001210820FDF7A6FB4A
:104D100002467B681A61744B012283F8BC20724BF7
:104D2000002283F8C820704B012283F8B521754B0F
:104D30007B606D4B0122C3F8CC2001210920FDF7D7
:104D40008DFB02467B681A61674B012283F8D020F5
:104D5000654B002283F86821634B012283F8B1215F
:104D6000694BBB60604B0122C3F86C219FED5A1B5D
:104D70009FED570B0520FDF7BBFC0246BB681A618F
:104D8000594BD3F878311846FDF764FD564B012294
:104D900083F87021544B002283F84021524B0122AA
:104DA00083F8BB21594B7B604F4B0122C3F8442150
:104DB00001210220FDF752FB02467B681A614A4B33
:104DC000012283F84821484B002283F82C21464BCE
:104DD000012283F8BA214E4B7B60434B0122C3F87A
:104DE000302101210A20FDF739FB02467B681A6158
:104DF0003D4B012283F834213B4B002283F81821DC
:104E0000394B012283F8B921424B7B60364B01229A
:104E1000C3F81C2101210B20FDF720FB02467B6813
:104E20001A61314B012283F820212F4B002283F895
:104E300004212D4B012283F8B821374B7B602A4B8C
:104E40000122C3F8082101210420FDF707FB0246D7
:104E50007B681A61244B012283F80C21224B00222B
:104E600083F8F020204B012283F8B7212B4B7B6085
:104E70001D4B0122C3F8F42001210720FDF7EEFAB3
:104E800002467B681A61184B012283F8F820164B02
:104E9000002283F8DC20144B012283F8B621204B3A
:104EA0007B60114B0122C3F8E02001210C20FDF7AB
:104EB000D5FA02467B681A610B4B012283F8E42085
:104EC00030E000BFAFF300800000000000804A40E7
:104ED0000000000000409F4000000000000044402F
:104EE000A019002090150020E01700208006002067
:104EF0006018002040180020201800205C190020B5
:104F000094180020A818002048190020201900201B
:104F10000C190020F8180020E4180020D0180020F8
:104F2000BC1800204A4B002283F85421484B012230
:104F300083F8BC21474B7B60454B0122C3F85821C5
:104F400001210D20FDF78AFA02467B681A61404B69
:104F5000012283F85C213E4B002283F890213C4BD8
:104F6000012283F8B3213C4BBB60394B0122C3F8CB
:104F700094219FED331B9FED340B0620FDF7B8FB0A
:104F80000246BB681A61324BD3F8A0311846FDF7D0
:104F900061FC2F4B012283F898212D4B002283F8CE
:104FA000AB212B4B002283F8AA21294B0022C3F806
:104FB000A421274B002283F8A921254B002283F846
:104FC000A821234B002283F8B021244B002283F830
:104FD0004222224B002283F8432220494FF0000254
:104FE0004FF00003C1E968231C4B002283F84422E0
:104FF0001A4B002283F84522184B002283F84622E0
:10500000164B002283F84722144B002283F84822D3
:10501000124B002283F84922104B002283F84A22C7
:105020000E494FF000024FF00003C1E96A230B4B19
:105030000022A3F8B42100BF1037BD4680BD00BFD9
:105040000000000000804A400000000000409F4037
:10505000E01700203419002070190020901500205E
:1050600080B500AFBF4B93F88030002B13D1BD4B00
:10507000012283F88020BB4BD3F88430012B0AD166
:10508000B84B93F88830002B05D0B64BD3F890304E
:105090001846FEF721F8FEF7DFFDB24B93F86030BB
:1050A000002B11D1AF4B012283F86020AD4B5B6E1A
:1050B000012B09D1AB4B93F86830002B04D0A94BDE
:1050C0001B6F1846FDF7B1FAA64B93F84030002B42
:1050D00011D1A44B012283F84020A24B5B6C012B21
:1050E00009D1A04B93F84830002B04D09D4B1B6D89
:1050F0001846FDF79AFA9B4B93F87C31002B19D197
:10510000984B012283F87C21964BD3F88031012BF8
:1051100010D1944B93F88431002B0BD0914BD3F8E2
:105120008C311846FDF7DEFB8E4BD3F88C311846D8
:10513000FDF7EEFB8B4B93F8B430002B13D1894B6A
:10514000012283F8B420874BD3F8B830012B0AD161
:10515000844B93F8BC30002B05D0824BD3F8C4307D
:105160001846FDF762FA7F4B93F8C830002B13D135
:105170007C4B012283F8C8207A4BD3F8CC30012B2A
:105180000AD1784B93F8D030002B05D0754BD3F86B
:10519000D8301846FDF749FA724B93F86831002B66
:1051A00019D1704B012283F868216E4BD3F86C3112
:1051B000012B10D16B4B93F87031002B0BD0694B46
:1051C000D3F878311846FDF78DFB664BD3F878316C
:1051D0001846FDF79DFB634B93F84031002B13D12C
:1051E000604B012283F840215E4BD3F84431012B00
:1051F0000AD15C4B93F84831002B05D0594BD3F8BA
:1052000050311846FDF711FA564B93F82C31002B0C
:1052100013D1544B012283F82C21524BD3F8303157
:10522000012B0AD14F4B93F83431002B05D04D4B55
:10523000D3F83C311846FDF7F8F94A4B93F818318A
:10524000002B13D1474B012283F81821454BD3F88B
:105250001C31012B0AD1434B93F82031002B05D090
:10526000404BD3F828311846FDF7DFF93D4B93F852
:105270000431002B13D13B4B012283F80421394B1D
:10528000D3F80831012B0AD1364B93F80C31002B9F
:1052900005D0344BD3F814311846FDF7C6F9314B1D
:1052A00093F8F030002B13D12E4B012283F8F0201D
:1052B0002C4BD3F8F430012B0AD12A4B93F8F83059
:1052C000002B05D0274BD3F800311846FDF7ADF978
:1052D000244B93F8DC30002B13D1224B012283F8AE
:1052E000DC20204BD3F8E030012B0AD11D4B93F882
:1052F000E430002B05D01B4BD3F8EC301846FDF7FB
:1053000094F9184B93F85431002B13D1154B01220B
:1053100083F85421134BD3F85831012B0AD1114B88
:1053200093F85C31002B05D00E4BD3F8643118464E
:10533000FDF77BF90B4B93F89031002B1DD1094BF6
:10534000012283F89021074BD3F89431012B14D11B
:10535000044B93F89831002B0FD0024BD3F8A031B7
:1053600002E000BFE01700201846FDF7BBFA044B2F
:10537000D3F8A0311846FDF7CBFA00BF80BD00BFBF
:10538000E017002080B489B000AF294BFB60294AA8
:10539000294B9A4216D00023FB610AE0264AFB699A
:1053A00052F823202349FB6941F82320FB6901338C
:1053B000FB61FB689B08FA699A42EFD31F4B1D4AB9
:1053C0009A6002E01D4B1C4A9A601D4BBB611D4B4D
:1053D0007B611D4BBB60BA687B69D31AFB6107E038
:1053E0007A69531C7B61BB69591CB96112781A70C8
:1053F000FB695A1EFA61002BF2D1144B3B61144B2E
:105400007B607A683B69D31AFB6104E03B695A1CF4
:105410003A6100221A70FB695A1EFA61002BF5D11D
:1054200000BF00BF2437BD465DF8047B704700BF56
:1054300000000000000000000000000000ED00E09F
:1054400000000020F4EA00008CFB0000981000200F
:10545000445B002080B400AF6B4BD3F888306A4ABD
:1054600043F47003C2F88830684B4CF22052DA8162
:10547000664B4DF62812DA81644B4FF4E9721A80BC
:10548000634B1B78DBB203F00103002B0FD0614BA1
:105490009B78DBB203F00803002B2ED05D4B9B788A
:1054A000DBB25C4A43F00803DBB2937025E05A4B51
:1054B00003F581531C331B68574943F0005201F533
:1054C00081531C331A60554B1B6903F48073002B06
:1054D00013D1524B1B6923F47C53504A43F440735D
:1054E00013614E4B1B694D4A43F4807313614B4B60
:1054F0001B694A4A23F400731361494B2A221A702C
:10550000454B03F5825304334FF08A721A60424BC5
:105510001B6823F44023404A43F4002313603E4BAE
:1055200003F5805304331B6823F440333A4943F4B2
:10553000803201F5805304331A60374B03F58153F1
:1055400018331B68344943F4007201F58153183352
:105550001A60344B9B6C334A23F0807323F4E0636E
:105560009364314B00221A722F4B5B78DBB223F02D
:105570006003DBB22C4A43F02003DBB253702B4BA9
:1055800080221A70284B00221A73274BBA221A70F5
:1055900000BF254B9B79DBB203F01003002BF8D141
:1055A000214BDB78DBB2204A03F01F03DBB2D37060
:1055B0001D4B13221A711C4B18225A711A4B5B791E
:1055C000DBB2194A43F04003DBB2537100BF164B04
:1055D0009B79DBB203F04003002BF8D0124B1B7811
:1055E000DBB2114A03F03F03DBB2137000BF0E4B76
:1055F0009B79DBB203F00C030C2BF8D100BF00BF8A
:10560000BD465DF8047B704700ED00E000200540DA
:1056100000F0074000D007400070044000D0034075
:1056200000E0074000900440004006400050064063
:1056300080B483B000AF9C4B1B78DBB203F0C00397
:10564000002B40F0DE80984B5B79DBB203F0400327
:10565000002B40F0B980944B1B78DBB203F00403BD
:10566000002B4ED1904B1B7BDBB203F00303002BCE
:1056700002D0012B03D006E08C4B7B6006E04FF498
:1056800000437B6002E08A4B7B6000BF864B5B7807
:10569000DBB203F03003002B23D0834B1B7BDBB248
:1056A00003F00303012B1CD07F4B1B78DBB203F00C
:1056B0003803302B05D0382B07D14FF4C0637B80E3
:1056C0000EE04FF4A0637B800AE0774B1B78DBB2DF
:1056D000DB0803F00703202202FA03F37B8000BFFC
:1056E00009E0714B1B78DBB2DB0803F007030122F2
:1056F00002FA03F37B807B887A68B2FBF3F37B606A
:1057000002E04FF400437B60674BDB78DBB203F0D1
:10571000E003E02B51D0E02B00F2B080C02B45D04D
:10572000C02B00F2AB80A02B39D0A02B00F2A680BA
:10573000802B2DD0802B00F2A180602B21D0602BFC
:1057400000F29C80402B15D0402B00F29780002B5C
:1057500002D0202B07D091E07A6813469B001344B7
:10576000DB017B608BE07A6813469B0013441B02CD
:105770007B6084E07A6813461B019B1ADB017B6027
:105780007DE07A6813469B0013445B027B6076E001
:105790007B684FF4377202FB03F37B606FE07B683A
:1057A0004FF4B76202FB03F37B6068E07B6840F66E
:1057B000950202FB03F37B6061E07B6840F6713287
:1057C00002FB03F37B605AE0374B1B79DBB29BB2E1
:1057D00003F01F039BB201337B807B88334AB2FB0B
:1057E000F3F37B60304B5B79DBB29BB203F01F03BA
:1057F0009BB218337B807A887B6802FB03F37B6063
:105800003DE0294B1B78DBB203F0C003402B1AD1DB
:10581000254B5B78DBB203F00103002B03D14FF47F
:1058200000437B602BE0204B1B7ADBB25B0803F06C
:105830000703012202FA03F37B807B881D4AB2FB37
:10584000F3F37B601BE0184B1B78DBB203F0C00363
:10585000802B23D1144B1B7BDBB203F00303002B03
:1058600002D0012B03D006E0104B7B6007E04FF421
:1058700000437B6003E00E4B7B6000E000BF0E4BFB
:1058800003F5825304331B681B0F03F00F0301332E
:105890007A68B2FBF3F3094A136000E000BF0C37EB
:1058A000BD465DF8047B70470040064080F0FA0278
:1058B000006CDC0200093D0000700440E00600209E
:1058C00080B584B000AFF860B9601346FB71BB6867
:1058D0001F2B05D90D4B0E4AFF210E4804F0BEFECA
:1058E000FB68BA6853F8223023F0807323F4E06336
:1058F000FA79120202F4E06243EA0201FB68BA6834
:1059000043F8221000BF1037BD4680BD7CD3000095
:10591000C4D4000088D3000080B483B000AF7860A6
:105920000B46FB707B68FA781A7000BF0C37BD46D7
:105930005DF8047B7047000080B584B000AF3B4643
:1059400000221A605A609A60DA60064B3B600223BC
:105950007B723B461946002002F076FB00BF1037F1
:10596000BD4680BD80F0FA0280B584B000AF074A22
:105970003B1D07CA83E807003B1D1946002002F0C3
:10598000AFFB00BF1037BD4680BD00BFC0D30000D5
:1059900080B500AF2A210848FFF7BEFF0022122180
:1059A0000648FFF78DFFFFF7C7FFFFF7DDFF04484D
:1059B00002F0ECFB00BF80BD00E007400090044017
:1059C000ACD4000080B582B000AF02F079FA0023B9
:1059D000FB7106E0FB79184602F05CFCFB790133B1
:1059E000FB71FB79042BF5D9FFF7D2FF00BF083715
:1059F000BD4680BD80B584B000AFF860B960134685
:105A0000FB71BB681F2B05D90D4B0E4AFF210E48B9
:105A100004F024FEFB68BA6853F8223023F0807348
:105A200023F4E063FA79120202F4E06243EA02012D
:105A3000FB68BA6843F8221000BF1037BD4680BD2E
:105A4000CCD30000D8D40000D8D3000080B483B0F9
:105A500000AF78600B46FB707B6803F58153083319
:105A6000FA785209D2B29200134403F1424303F58B
:105A70008013DA00FB7803F01F0313449B001A46DF
:105A80000123136000BF0C37BD465DF8047B7047EF
:105A900080B584B000AF786089215D48FFF7D6FFFC
:105AA0008A215B48FFF7D2FF8B215948FFF7CEFFD1
:105AB0008C215748FFF7CAFF8D215548FFF7C6FFD5
:105AC0007B68032B00F2968001A252F823F000BFFE
:105AD000E15A0000535B00007D5B0000A75B000003
:105AE0000023FB600023BB60FB68002B05D1032271
:105AF00011214848FFF77EFF10E0FB68012B05D11C
:105B0000032202214448FFF775FF07E0FB68022BE0
:105B100004D1032207214148FFF76CFFBB68002B2B
:105B200005D1032210213B48FFF764FF64E0BB6806
:105B3000012B05D1032201213748FFF75BFF5BE012
:105B4000BB68022B58D1032206213448FFF752FFCD
:105B500052E00023FB600023BB60FB68002B04D1F4
:105B6000032204212E48FFF745FFBB68002B45D1D7
:105B7000032203212A48FFF73DFF3FE00023FB609B
:105B80000023BB60FB68002B04D1032203212348C0
:105B9000FFF730FFBB68002B32D1032202211F48E0
:105BA000FFF728FF2CE00023FB600023BB60FB68AD
:105BB000002B05D1032211211948FFF71BFF07E035
:105BC000FB68012B04D103220B211248FFF712FFBF
:105BD000BB68002B05D1032210211148FFF70AFFF3
:105BE00010E0BB68012B0DD103220A210948FFF701
:105BF00001FF07E000BF06E000BF04E000BF02E0D5
:105C000000BF00E000BF00BF1037BD4680BD00BF31
:105C10000070044000A004400090044000C0044014
:105C200000B0044080B500AF002002F0EFFE00BFDE
:105C300080BD80B500AF012002F0E8FE00BF80BD4E
:105C400080B500AF022002F0E1FE00BF80BD80B54C
:105C500000AF032002F0DAFE00BF80BD80B500AFC8
:105C6000042002F0D3FE00BF80BD80B500AF052048
:105C700002F0CCFE00BF80BD80B500AF062002F070
:105C8000C5FE00BF80BD80B500AF072002F0BEFE9C
:105C900000BF80BD80B500AF082002F0B7FE00BF96
:105CA00080BD80B500AF092002F0B0FE00BF80BD0E
:105CB00080B500AF0A2002F0A9FE00BF80BD80B50C
:105CC00000AF0B2002F0A2FE00BF80BD80B500AF88
:105CD0000C2002F09BFE00BF80BD80B500AF0D2000
:105CE00002F094FE00BF80BD80B500AF0E2002F030
:105CF0008DFE00BF80BD80B500AF0F2002F086FE94
:105D000000BF80BD80B500AF002002F097FE00BF4D
:105D100080BD80B500AF002003F05AFD00BF80BDFC
:105D200080B500AF012003F053FD00BF80BD80B5FA
